:100000000C9497000C94B6000C94B6000C94B600B7
:100010000C94B6000C94B6000C94B6000C94B60088
:100020000C94D8000C94B6000C94B6000C94B60056
:100030000C94B6000C94B6000C94B6000C94B60068
:100040000C94B6000C94B6000C94B6000C94B60058
:100050000C94B6000C94B6000C94B6000C94B60048
:100060000C94B6000C94B6000C94B6000C94B60038
:100070000C94B6000C94CE000C94B6000C94B60010
:100080000C94B6000C94F6000C94B60037010E01E7
:100090000E010E010E010E010E010E0137010E01BF
:1000A0000E010E010E010E010E010E0141010E01A5
:1000B0000E010E010E010E010E010E010E010E01C8
:1000C0000E010E010E010E010E010E0141010E0185
:1000D0000E010E010E010E010E010E010E010E01A8
:1000E0000E010E010E010E010E010E0158010E014E
:1000F0000E010E010E010E010E010E015C010E013A
:100100000E010E010E010E010E010E010E010E0177
:100110000E010E010E010E010E010E016A010E010B
:100120000E010E010E010E010E010E012801112417
:100130001FBECFEFD0E1DEBFCDBF12E0A0E0B1E047
:10014000E4EBF9E000E00BBF02C007900D92A03095
:10015000B107D9F722E0A0E0B2E001C01D92A73DAF
:10016000B207E1F70E9456040C94D8040C940000E6
:10017000EBE8F0E0808181688083EAE8F0E080814C
:1001800089608083EDE7F0E08081846080838FE781
:1001900090E0909387008093860008951F920F92BD
:1001A0000FB60F9211240F900FBE0F901F9018954D
:1001B0001F920F920FB60F9211248F9381E08093BC
:1001C00027028F910F900FBE0F901F9018951898CF
:1001D000179A1A9A8FE193E00197F1F700C0000097
:1001E0001A9890EA9A95F1F7179808951F920F922E
:1001F0000FB60F9211240BB60F922F933F938F934C
:100200009F93AF93BF93EF93FF93E09171008E2F75
:1002100090E0FC013897E135F105B0F08091710074
:100220008093010284E080937400FF91EF91BF916D
:10023000AF919F918F913F912F910F900BBE0F9097
:100240000FBE0F901F901895EA5BFF4F0C949A0415
:1002500080910002E0910202F0910302E80FF11D8B
:1002600080917300808384E980937400DECF809155
:100270000402809373001092000285E8809374005A
:10028000D4CF8091000290910502891760F7E09128
:100290000202F091030291E0980F90930002E80FA0
:1002A000F11D80818093730085E880937400BDCF39
:1002B00085EA80937400B9CF2091000280910502F5
:1002C00030E090E0019728173907DCF485EC809343
:1002D0007400ABCFE0910202F09103028091000222
:1002E00021E0280F20930002E80FF11D8091730098
:1002F00080838091050230E090E00197281739074C
:100300002CF385E88093740090CF80917400817005
:1003100008959091740090FDFCCF8E7F809304022D
:1003200070930302609302024093050285EA809372
:10033000740008959091740090FDFCCF81608093CB
:10034000040270930302609302024093050285EA5F
:100350008093740008958FEF809373001092710062
:100360008CE080937000089584E18093060241E060
:1003700066E072E082E20E9489010E94850181119B
:10038000FCCF8FEA94E00197F1F700C0000041E054
:1003900068E272E082E20E949A010E948501811166
:1003A000FCCF80912802089580E28093060210928B
:1003B00007028091000190910101909308028093BF
:1003C000090210920A021092270245E066E072E0EC
:1003D00082E20E9489012FEF81EE94E0215080405B
:1003E0009040E1F700C00000809127028823E1F3EC
:1003F000089581E18093060241E066E072E082E2C6
:100400000E94890187ED94E00197F1F700C0000098
:10041000089583E28093060281E08093070242E020
:1004200066E072E082E20E9489010E9485018111EA
:10043000FCCF8FEA94E00197F1F700C0000048E09C
:100440006FE072E082E20E949A010E9485018111B0
:10045000FCCF089582E28093060281E08093070238
:1004600042E066E072E082E20E9489010E9485011A
:100470008111FCCF8FEA94E00197F1F700C00000F2
:1004800048E06FE072E082E20E949A010E948501DA
:100490008111FCCF089582E48093060281E080936D
:1004A000070242E066E072E082E20E9489010E9457
:1004B00085018111FCCF8FEA94E00197F1F700C02C
:1004C000000048E06FE072E082E20C949A0183E45D
:1004D0008093060281E08093070242E066E072E0CA
:1004E00082E20E9489010E9485018111FCCF8FEA7E
:1004F00094E00197F1F700C0000048E06FE072E07F
:1005000082E20C949A01E6E0F2E022E1208311827B
:10051000928383837483658346E0BF0182E20E94F5
:1005200089018FE39CE90197F1F700C0000008956D
:10053000E6E0F2E081E0808380E5818385E08283EC
:1005400043E0BF0182E20E9489012FEF8BED95E02D
:10055000215080409040E1F700C0000061E070E071
:1005600081E090E00C948302E6E0F2E081E0808399
:1005700081E5818385E0828343E0BF0182E20E94BE
:1005800089012FEF8BED95E0215080409040E1F7FD
:1005900000C0000061E070E081E090E00C94830214
:1005A000E6E0F2E081E0808381E5818385E082837B
:1005B00043E0BF0182E20E9489012FEF8BED95E0BD
:1005C000215080409040E1F700C0000060E070E002
:1005D00082E093E30E94830261E071E082E091E3B4
:1005E0000E94830261E070E081E090E00C9483025D
:1005F00080E18093060241E066E072E082E20E94C0
:1006000089010E9485018111FCCF8FEA94E0019756
:10061000F1F700C0000048E067E172E082E20E946A
:100620009A010E9485018111FCCF82E091E00E9435
:10063000FA038BE391E00E94FA0384E791E00E94C1
:10064000FA03809118024AE06FE572E090E00E94A0
:10065000A3048FE592E00E94FA0381E891E00E94F2
:10066000FA03809119024AE06FE572E090E00E947F
:10067000A3048FE592E00E94FA0381E791E00C94D5
:10068000FA03FF920F931F93CF93DF93CDB7DEB79B
:10069000A8970FB6F894DEBF0FBECDBF8FE891E0EC
:1006A0000E94FA038FE991E00E94FA030FE012E042
:1006B000F801808140E16FE572E090E00E94A304C0
:1006C0008FE592E00E94FA0381E791E00E94FA032D
:1006D0008FEA91E00E94FA03F80181814AE06FE518
:1006E00072E090E00E94A3048FE592E00E94FA037A
:1006F00081E791E00E94FA03F801F3808FEB91E02B
:100700000E94FA034AE06FE572E08F2D90E00E94AC
:10071000A3048FE592E00E94FA0381E791E00E9432
:10072000FA038FEC91E00E94FA03F801828140E124
:10073000BE016F5F7F4F90E00E94A304CE0101963F
:100740000E94FA0381E791E00E94FA038FED91E0A5
:100750000E94FA03F801838140E1BE016F5F7F4F81
:1007600090E00E94A304CE0101960E94FA0381E763
:1007700091E00E94FA038FEE91E00E94FA03F801E3
:10078000848140E16FE572E090E00E94A3048FE570
:1007900092E00E94FA0381E791E00E94FA03A89692
:1007A0000FB6F894DEBF0FBECDBFDF91CF911F9182
:1007B0000F91FF9008955D9BFECF8CB95D9BFECF9E
:1007C000089590919B0095FFFCCF80939C008091B1
:1007D0009B0085FFFCCF0895FC019081992349F08F
:1007E00031965D9BFECF9CB95D9BFECF919191119F
:1007F000F8CF0895FC012081222371F03196909169
:100800009B0095FFFCCF20939C0090919B0095FF4F
:10081000FCCF21912111F3CF08959C01FC0144915B
:10082000442369F00196F90124915D9BFECF2CB918
:100830005D9BFECF9C01FC0144914111F3CF0895D3
:100840008AB188698AB9E5E9F0E0808186608083B1
:100850001092900087E689B90895EAE9F0E0808176
:1008600088618083EDE9F0E080818660808310926A
:10087000980087E680939900089580E89EE302C07F
:10088000019721F05F9BFCCF8CB1089580E0089523
:1008900080E89EE302C0019739F020919B0027FF7A
:1008A000FACF80919C00089580E00895139A129ADF
:1008B0001A9A80E187BB1A9A8AB7806C8ABF89B777
:1008C000806889BF0E94AB0180918B008168809312
:1008D0008B0080918A00896080938A0080917D00DE
:1008E000846080937D008FE790E0909387008093F1
:1008F00086000E94E70078940E9498020E94D4012A
:1009000090E12FE73AE186E0215030408040E1F766
:1009100000C0000088B3892788BB2FEF39E688E143
:10092000215030408040E1F700C0000088B38927A3
:1009300088BBE7CFEE0FFF1F0024001C0BBE079003
:10094000F691E02D0994BB274A3031F4992322F423
:10095000BDE2909581959F4F0C94AF04BB27FB019E
:100960005527AA27880F991FAA1FA41710F0A41BA8
:1009700083955051B9F7A05DAA3308F0A95DA19302
:10098000009779F7B111B1931192CB010C94C8047F
:10099000DC01FC01672F71917723E1F7329704C0E6
:1009A0007C916D9370836291AE17BF07C8F3089571
:0409B000F894FFCFE9
:1009B4000627536934373334205265763A20206C45
:1009C400617374203220646967697473206F6620D0
:1009D40070617274206E6F2E20202063686970200D
:1009E40072657620202020200A0D0020202020205F
:1009F40020202020202020202D2D2D2D2D2D2D2D8B
:100A04002D2D2D2D2D2D2D2D2D2D2D2D2D2D2D2D12
:100A14002D2020202D2D2D2D2D2D2D2D202020205D
:100A2400200A0D002020202020202020202020200B
:100A340020202020202020202020202020200046AC
:100A44004D5F5253515F5354415455533A200073F0
:100A5400746174757320627974652020203A007281
:100A6400657370312020202020202020203A006649
:100A7400726571202020202020202020203A00664A
:100A8400726571206869676820202020203A00661A
:100A9400726571206C6F772020202020203A00722C
:100AA400737369202020202020202020203A000079
:00000001FF
