:100000000C9446000C9458000C9458000C94580022
:100010000C9458000C9458000C9458000C94580000
:100020000C9458000C9458000C9458000C945800F0
:100030000C9458000C9458000C9458000C945800E0
:100040000C9458000C9458000C9458000C945800D0
:100050000C9458000C9458000C9458000C945800C0
:100060000C9458000C9458000C9458000C945800B0
:100070000C9458000C9458000C9458000C945800A0
:100080000C9458000C9458000C94580011241FBE76
:10009000CFEFD0E1DEBFCDBF21E0A0E0B1E001C0F5
:1000A0001D92A531B207E1F70E94CA010C942D02FE
:1000B0000C940000482FE82FF0E099B3EE0FFF1FDB
:1000C000E050FF4F20813181220F331F306E892F86
:1000D00090E002C0959587954A95E2F7817099273F
:1000E000282B392B3183208381E02115304F09F0F3
:1000F00080E008958823A1F08130A1F08230A1F042
:100100008330A1F08430A1F08530A1F08630A1F0D9
:100110008730A1F08830A1F08930A1F08FEF0895E9
:1001200080EC089589EF089584EA089580EB08959E
:1001300089E9089582E9089582E8089588EF08958D
:1001400080E8089580E90895AF92BF92CF92DF9240
:10015000FF920F931F93CF93DF93EC019C01369591
:1001600027953695279536952795A5ECB0E20E9400
:100170001E02AC01529542954F7045275F7045278E
:100180009A01ADECBCEC0E941E029695879596955F
:100190008795969587959C01220F331F880F991F8D
:1001A000880F991F880F991F820F931F481B590BA7
:1001B000F42E9E013695279536952795ABE7B4E149
:1001C0000E941E028C01169507959801ADECBCECBF
:1001D0000E941E0296958795969587959695879588
:1001E0009C01220F331F880F991F880F991F880FBA
:1001F000991F820F931F081B190B9E010E941E025C
:100200006C01D694C794D694C794D694C79496019B
:100210000E941E0296958795969587959695879547
:100220009C01220F331F880F991F880F991F880F79
:10023000991F820F931F5601A81AB90A842F0E9492
:100240007A0080931001802F0E947A008093110120
:10025000DFEFD09312018A2D0E947A008093130160
:100260008C2F9AE0C99E801911240E947A008093F5
:100270001401F11008C0D0931001011104C0D093F3
:100280001101AA2051F0DF91CF911F910F91FF90A2
:10029000DF90CF90BF90AF900895D0931301F3CF2C
:1002A000CF93DC01E0E0F1E0C1E060E070E005C088
:1002B000C830A1F16F5F7F4FCF5F99B3208131814B
:1002C000220F331FA901506E292F30E0062E02C0E5
:1002D000359527950A94E2F721703327242B352B87
:1002E000219331932115304F19F7862F6623C1F0E2
:1002F000813009F446C08230E1F1833091F18430DD
:1003000041F18530F1F08630A1F08D919C911197EB
:10031000019611969C938E93C83061F6CF91089503
:100320008D919C91119780589F4F11969C938E931D
:10033000C1CF8D919C911197029611969C938E93AB
:10034000B9CF8D919C911197049611969C938E93A1
:10035000B1CF8D919C911197089611969C938E9395
:10036000A9CF8D919C911197409611969C938E9355
:10037000A1CF8D919C911197809611969C938E930D
:1003800099CF8D919C911197805C9F4F11969C9372
:100390008E9390CFCF93DF9300D0CDB7DEB780EFB1
:1003A00087BB1A82198210E00FEF80EFE82E90EEE3
:1003B000F92E20E4D22E30E1A32E40E2B42E50E3F9
:1003C000C52E8FE39FE10197F1F700C000001ABA34
:1003D0000BBBE8BACE0101960E945001F8BA8981A0
:1003E0009A81811524E0920720F01A82198280E018
:1003F00090E00E94A4000ABB153088F4E12FF0E0E1
:10040000E05FFE4F80818BBB112361F0113069F0FA
:10041000123071F0133079F018BA15E0D2CF809114
:1004200010018BBBD8BA11E0CCCFC8BA12E0C9CF4B
:10043000B8BA13E0C6CFA8BA14E0C3CFA29FB001E8
:10044000B39FC001A39F700D811D1124911DB29F08
:0E045000700D811D1124911D0895F894FFCFA9
:00000001FF
