:100000000C9446000C9458000C9458000C94580022
:100010000C9458000C9458000C9458000C94580000
:100020000C9458000C9458000C9458000C945800F0
:100030000C9458000C9458000C9458000C945800E0
:100040000C9458000C9458000C9458000C945800D0
:100050000C9458000C9458000C9458000C945800C0
:100060000C9458000C9458000C9458000C945800B0
:100070000C9458000C9458000C9458000C945800A0
:100080000C9458000C9458000C94580011241FBE76
:10009000CFEFD0E1DEBFCDBF21E0A0E0B1E001C0F5
:1000A0001D92A230B207E1F70E9471000C94A100EA
:1000B0000C94000049B32091000130910101220FFE
:1000C000331F306E842F817090E0282B392B3093B2
:1000D00001012093000181E02115304F09F080E0FB
:1000E00008951ABA8FEF8BBB87BB18BA14BA80EF8A
:1000F00085BB51E006C08FE39FE10197F1F700C097
:10010000000049B38091000190910101880F991F6F
:10011000906E242F217030E0822B932B909301015D
:10012000809300018115904F31F758BB9FEF49E64E
:1001300088E1915040408040E1F700C0000018BACB
:06014000DACFF894FFCFB6
:00000001FF
