:100000000C9446000C9450000C9450000C9450003A
:100010000C9450000C9450000C9450000C94500020
:100020000C9450000C9450000C9450000C94500010
:100030000C9450000C9450000C9450000C94500000
:100040000C9450000C9450000C9450000C945000F0
:100050000C9450000C9450000C9450000C945000E0
:100060000C9450000C9450000C9450000C945000D0
:100070000C9450000C9450000C9450000C945000C0
:100080000C9450000C9450000C94500011241FBE8E
:10009000CFEFD0E1DEBFCDBF0E9463000C947600AD
:1000A0000C940000EBE8F0E0808181688083EAE84E
:1000B000F0E080818960808386E990E090938700FA
:1000C00080938600089588E082B980918B008168D2
:1000D00080938B0080918A00896080938A0086E9F2
:1000E00090E09093870080938600FFCFF894FFCF35
:00000001FF
