:100000000C9402010C941F010C941F010C941F010D
:100010000C941F010C941F010C941F010C941F01E0
:100020000C941F010C941F010C941F010C941F01D0
:100030000C941F010C941F010C941F010C941F01C0
:100040000C941F010C941F010C9421010C941F01AE
:100050000C941F010C941F010C941F010C941F01A0
:100060000C9430020C941F014B02A402A402A402BF
:10007000A402A402A402A4024B02A402A402A402A9
:10008000A402A402A402A4025502A402A402A4028F
:10009000A402A402A402A402A402A402A402A40230
:1000A000A402A402A402A4025502A402A402A4026F
:1000B000A402A402A402A402A402A402A402A40210
:1000C000A402A402A402A402A002A402A402A40204
:1000D000A402A402A402A4027F02A402A402A40215
:1000E000A402A402A402A402A402A402A402A402E0
:1000F000A402A402A402A4027002A402A402A40204
:10010000A402A402A402A402910200407A10F35AAD
:1001100000A0724E18090010A5D4E80000E8764847
:10012000170000E40B54020000CA9A3B000000E1F3
:10013000F505000080969800000040420F00000086
:10014000A08601000000102700000000E803000066
:1001500000006400000000000A0000000000010030
:10016000000000002C76D888DC674F0823DFC1DF51
:10017000AE59E1B1B796E5E3E453C63AE651997654
:1001800096E8E6C28426EB898C9B62ED407C6FFC8E
:10019000EFBC9C9F40F2BAA56FA5F490055A2AF7D0
:1001A0005C936B6CF9676DC11BFCE0E40D47FEF5D9
:1001B00020E6B500D0ED902E030094357705008041
:1001C000841E080000204E0A000000C80C333333A0
:1001D000330F986E12831141EF8D2114893BE65540
:1001E00016CFFEE6DB18D1844B381BF77C1D901D23
:1001F000A4BBE424203284725E228100C9F124EC85
:10020000A1E53D2711241FBECFEFD4E0DEBFCDBF57
:1002100011E0A0E0B1E0E4ECFDE002C005900D9239
:10022000A830B107D9F721E0A8E0B1E001C01D92E4
:10023000A938B207E1F70E944B010C94E0060C9438
:1002400000001F920F920FB60F9211248F939F936D
:10025000EF93FF938091C60080932E01E0910A01F5
:1002600091E09E0F90930A01F0E0E25FFE4F8083E1
:10027000811108C09091090181E0892780930901CB
:1002800010920A01FF91EF919F918F910F900FBEF5
:100290000F901F9018950E94B401789480E284B961
:1002A000D0E0C0E211E00E94D301BC012FEF89E64B
:1002B00098E1215080409040E1F700C0000095B1E6
:1002C0009C2795B92FEF89E698E121508040904016
:1002D000E1F700C0000095B19C2795B99091090104
:1002E000913009F780910901812780930901D12775
:1002F0004D2F8EE191E00E94EC018EE191E00E9491
:10030000920180E00E948501CECFE0ECF0E0908188
:1003100095FFFDCF8093C600E0ECF0E0808185FF83
:10032000FDCF0895CF93DF93EC018881882331F0CE
:1003300021960E94850189918111FBCFDF91CF9198
:100340000895CF93DF93EC01FC018491882349F059
:10035000FE01219684910E948501FE018491811104
:10036000F7CFDF91CF910895E1ECF0E080818869CB
:100370008083E2ECF0E08081866080831092C5008B
:1003800087E68093C400089580E89EE3E0ECF0E007
:1003900002C0019731F020812223DCF78091C60052
:1003A000089580E0089583EE8093820141E062E841
:1003B00071E080E80E94BC0242E06FE771E080E8F3
:1003C0000E94CE02EFE7F1E0808190E0982F88272D
:1003D0002181822B8C7F08950F931F93CF93DF93FE
:1003E000EC01142F80E090E00E945C0322E538EBE2
:1003F0004FE25BE30E94EA0326E636E64BE352E473
:100400000E94EF021123D1F026E636E646EE5FE3C6
:100410000E94EA0320E030E040E052E40E94F00253
:100420008E0122E045E00E94570409900020E9F780
:10043000219786E490E0998388830DC08E0122E0A5
:1004400045E00E94570409900020E9F7219783E4D2
:1004500090E099838883DF91CF911F910F91089548
:100460001F920F920FB60F9211242F933F938F93E9
:100470009F93AF93BF93EF93FF93E091B9008E2FBB
:1004800090E0FC013897E135F10508F05DC0EC5CC7
:10049000FF4F0C94E902809187018093BB0010927A
:1004A0000B0185E88093BC0056C080910B019091B0
:1004B0008801891788F4E0918501F091860191E027
:1004C000980F90930B01E80FF11D80818093BB0082
:1004D00085E88093BC003FC084E98093BC003BC0AA
:1004E000E0918501F091860180910B0191E0980FD8
:1004F00090930B01E80FF11D8091BB0080838091E8
:10050000880120910B0130E090E00197281739070E
:1005100024F485EC8093BC001EC085E88093BC0069
:100520001AC080910B01E0918501F0918601E80FDE
:10053000F11D8091BB00808384E98093BC000BC0D7
:1005400085EA8093BC0007C08091B9008093840144
:1005500084E08093BC00FF91EF91BF91AF919F9198
:100560008F913F912F910F900FBE0F901F90189574
:100570008091BC0081700895ECEBF0E0908190FDDB
:10058000FDCF8E7F809387017093860160938501F4
:100590004093880185EA8093BC000895ECEBF0E07D
:1005A000908190FDFDCF81608093870170938601DB
:1005B000609385014093880185EA8093BC0008958B
:1005C0008FEF8093BB001092B9008CE08093B8004D
:1005D0000895EE0FFF1F0590F491E02D09945058F7
:1005E000BB27AA270E9407030C94B0030E94A20312
:1005F00038F00E94A90320F039F49F3F19F426F443
:100600000C949F030EF4E095E7FB0C949903E92FFB
:100610000E94C10358F3BA1762077307840795074E
:1006200020F079F4A6F50C94E3030EF4E0950B2E7C
:10063000BA2FA02D0B01B90190010C01CA01A00134
:100640001124FF27591B99F0593F50F4503E68F18F
:100650001A16F040A22F232F342F4427585FF3CFD0
:10066000469537952795A795F0405395C9F77EF4A1
:100670001F16BA0B620B730B840BBAF09150A1F0EA
:10068000FF0FBB1F661F771F881FC2F70EC0BA0F70
:10069000621F731F841F48F4879577956795B795F8
:1006A000F7959E3F08F0B0CF9395880F08F09927F3
:1006B000EE0F979587950895E89409C097FB3EF44F
:1006C00090958095709561957F4F8F4F9F4F99239F
:1006D000A9F0F92F96E9BB279395F695879577951D
:1006E0006795B795F111F8CFFAF4BB0F11F460FFDD
:1006F0001BC06F5F7F4F8F4F9F4F16C0882311F035
:1007000096E911C0772321F09EE8872F762F05C048
:10071000662371F096E8862F70E060E02AF09A95E3
:10072000660F771F881FDAF7880F9695879597F9D8
:10073000089597F99F6780E870E060E008959FEF63
:1007400080EC089500240A94161617061806090668
:10075000089500240A941216130614060506089537
:10076000092E0394000C11F4882352F0BB0F40F4BF
:10077000BF2B11F460FF04C06F5F7F4F8F4F9F4FFF
:10078000089557FD9058440F551F59F05F3F71F081
:100790004795880F97FB991F61F09F3F79F08795E8
:1007A0000895121613061406551FF2CF4695F1DF71
:1007B00008C0161617061806991FF1CF8695710501
:1007C000610508940895E894BB2766277727CB0135
:1007D00097F908950E94FD030C94B0030E94A203B0
:1007E00038F00E94A90320F0952311F00C9499038E
:1007F0000C949F0311240C94E4030E94C10370F332
:10080000959FC1F3950F50E0551F629FF001729FB5
:10081000BB27F00DB11D639FAA27F00DB11DAA1FC4
:10082000649F6627B00DA11D661F829F2227B00D11
:10083000A11D621F739FB00DA11D621F839FA00D9C
:10084000611D221F749F3327A00D611D231F849FEC
:10085000600D211D822F762F6A2F11249F57504043
:100860009AF0F1F088234AF0EE0FFF1FBB1F661FBE
:10087000771F881F91505040A9F79E3F510580F087
:100880000C9499030C94E4035F3FE4F3983ED4F393
:10089000869577956795B795F795E7959F5FC1F72B
:1008A000FE2B880F911D9695879597F90895EF92E5
:1008B0000F931F93CF93DF93E80147FD02C034E00D
:1008C00001C034E1042E000C550B57FF03C05195B5
:1008D00041955109E32E022F242FAE010E94770487
:1008E000CE01DF91CF911F910F91EF900895A9E074
:1008F000B0E0EDE7F4E00C94AF066A01122FB02EE1
:100900002BE3201720F0FF24F394F00E02C02CE319
:10091000F22E0F2D27E0AE014F5F5F4F0E94D105F1
:10092000BC014981842F8970813031F0E1FC06C01F
:10093000E0FE06C090E205C09DE203C09BE201C05C
:1009400090E05E2D507143FF3CC0911102C083E0E6
:1009500001C084E0811718F4212F281B01C020E07A
:1009600051110BC0F601822F30E2882319F0319328
:100970008150FBCFC20ED11C20E0992329F0D60173
:100980009C93F60131966F01C6010396E2FE0AC000
:100990003EE4D6013C9341E411964C931197129694
:1009A0003C9306C03EE6F601308341E64183328344
:1009B000FC01322F40E2332309F442C0419331500D
:1009C000FACF42FF44C0911102C083E001C084E02D
:1009D000811718F4212F281B01C020E051110BC0F2
:1009E000F601822F30E2882319F031938150FBCF3A
:1009F000C20ED11C20E0992329F0D6019C93F60168
:100A000031966F01C6010396E2FE0BC039E4D601B0
:100A10003C933EE411963C93119736E412963C9336
:100A200007C039E6F60130833EE6318336E632838D
:100A3000FC01322F40E2332319F041933150FBCFB8
:100A4000FC01E20FF11D10828EEF9FEFA6C021E0A6
:100A500030E0911102C020E030E0161617061CF4B9
:100A6000FB01319602C0E1E0F0E02E0F3F1FBB20FA
:100A700021F0EB2DF0E0319602C0E0E0F0E02E0F27
:100A80003F1FE12FF0E02E173F071CF4121B212F10
:100A900001C020E08E2D887159F4F601822F30E2DA
:100AA000882319F031938150FBCFC20ED11C20E076
:100AB000992329F0D6019C93F60131966F015111CB
:100AC0000BC0F601822F90E3882319F09193815097
:100AD000FBCFC20ED11C20E00F2D060F9A81342FC0
:100AE000307144FF03C0913309F40150101624F40F
:100AF000093018F008E001C001E0AB0177FF02C047
:100B000040E050E0FB01E41BF50BA1E0B0E0AC0FCE
:100B1000BD1FEA0FFB1F8EE2A82E4B01801A910821
:100B20000B2D10E01195019511094F3FBFEF5B07A9
:100B300021F4D601AC9211966D01641775072CF063
:100B40008416950614F4818101C080E34150510957
:100B50003196D60111967D014017510724F0D60138
:100B60008C936701E2CF6417750739F4963320F44C
:100B7000953319F4311101C081E3F6018083F70147
:100B8000822F90E2882319F091938150FBCFF701D7
:100B9000E20FF11D108280E090E02996ECE00C94C9
:100BA000CB06283008F027E03327DA01990F311DF2
:100BB00087FD916000966105710539F432602E5F02
:100BC0003D9330E32A95E1F708959F3F30F0803858
:100BD0007105610509F03C5F3C5F3D93913008F081
:100BE0008068911DDF93CF931F930F93FF92EF9235
:100BF000192F987F9695E92F96959695E90FFF27DF
:100C0000EC59FE4F99273327EE24FF24A701E70173
:100C100005900894079428F4360FE71EF81E491F24
:100C2000511D660F771F881F991F0694A1F7059025
:100C3000079428F4E70EF81E491F561FC11D770FB1
:100C4000881F991F661F0694A1F70590079428F442
:100C5000F80E491F561FC71FD11D880F991F661F09
:100C6000771F0694A1F70590079420F4490F561FAB
:100C7000C71FD81F990F661F771F881F0694A9F7F3
:100C800084911095177041F0D695C7955795479563
:100C9000F794E7941A95C1F7EAE0F1E068941590AB
:100CA000159135916591959105907FE27395E118C5
:100CB000F10A430B560BC90BD009C0F7E10CF11E2A
:100CC000431F561FC91FD01D7EF4703311F48A953F
:100CD000E6CFE894015030F0080F0AF4002702171D
:100CE00008F4202F2395022F7A3328F079E37D939F
:100CF0002A95E9F710C07D932A9589F60694979571
:100D00006795379517951794E118F10A430B560B21
:100D1000C90BD00998F023957E9173957A3308F02A
:100D200070E37C932013B8F77E9170617D9330F06F
:100D3000839571E37D9370E32A95E1F71124EF9099
:100D4000FF900F911F91CF91DF91992787FD90958B
:100D500008952F923F924F925F926F927F928F925F
:100D60009F92AF92BF92CF92DF92EF92FF920F933A
:100D70001F93CF93DF93CDB7DEB7CA1BDB0B0FB644
:100D8000F894DEBF0FBECDBF09942A883988488801
:100D90005F846E847D848C849B84AA84B984C88497
:100DA000DF80EE80FD800C811B81AA81B981CE0F8E
:100DB000D11D0FB6F894DEBF0FBECDBFED01089573
:040DC000F894FFCFD5
:080DC40073616D706C650000A5
:00000001FF
