S00F00006C6162335F6D6C2E737265637B
S11300000C9446000C9465000C9465000C946500F7
S11300100C9465000C9465000C9465000C946500C8
S11300200C9465000C9465000C9465000C946500B8
S11300300C9465000C9465000C9465000C946500A8
S11300400C9431020C9465000C9465000C946500CA
S11300500C9465000C9465000C9465000C94650088
S11300600C9465000C9465000C9465000C94650078
S11300700C9465000C9465000C9465000C94650068
S11300800C9465000C9465000C94650011241FBE4B
S1130090CFEFD0E1DEBFCDBF11E0A0E0B1E0EEE8EC
S11300A0F7E000E00BBF02C007900D92A230B10749
S11300B0D9F721E0A2E0B1E001C01D92A332B2075A
S11300C0E1F70E9460030C94C5030C940000482FD0
S11300D0E82FF0E099B3EE0FFF1FE25FFE4F20819F
S11300E03181220F331F306E892F90E002C0959525
S11300F087954A95E2F781709927282B392B31830C
S1130100208381E02115304F09F080E0089587E9CC
S113011087BB80E58DB981E08EB908951FB8779BC0
S1130120FECF8FB1089587B7816087BF83B785609D
S113013083BF089580910D01882369F080910D019A
S1130140813081F080910D01823081F080910D0128
S1130150833029F0089581E080930101089510927D
S11301600101089582E080930101089584E0809361
S1130170010108951ABA8FEF8BBB80EF85BB1092F3
S11301800A0180910A018230F0F562E051E009C071
S113019080910A018F5F80930A0180910A01823065
S11301A090F540910A01E42FF0E099B3EE0FFF1FA0
S11301B0E25FFE4F20813181220F331F306E892F81
S11301C090E002C0959587954A95E2F7817099274A
S11301D0822B932B918380838115904FC9F6809154
S11301E00A01811106C080910D01852780930D01BC
S11301F0CFCF80910A01813059F680910D01862775
S113020080930D01C5CF0E949A0080EE85BB0895AE
S113021093B180E4982793B993B1892783B983B1C3
S1130220805883B91FB8779BFECF8FB180930201AA
S113023083B1805883B9809102018093080187E0DB
S113024080930501809105018230D8F041E050E0AF
S11302508091050120910801BA0102C0660F771F41
S11302608A95E2F7CB0180959095822380930801CB
S113027080910501815080930501809105018230B0
S113028038F780910201869586958093060187E070
S113029080930501809105018230D8F041E050E05F
S11302A08091050120910601BA0102C0660F771FF3
S11302B08A95E2F7CB01809590958223809306017D
S11302C08091050181508093050180910501823060
S11302D038F780910001813009F464C080910801ED
S11302E08130B9F108F469C08230D1F0833009F06B
S11302F06DC080910901813081F1809109018230C2
S1130300B9F0809106018130E1F5809107018823DD
S113031009F496C080910701833009F471C00895EF
S1130320809109018330C9F080910901811125C0B0
S1130330209101018091030190910401821B910994
S11303409093040180930301809108018093090133
S113035014C08091090181116DC020910101809127
S1130360030190910401820F911D909304018093E5
S11303700301809108018093090180910601813075
S113038021F2813008F44DC0823091F1833039F587
S113039080910701813009F453C0809107018230B4
S11303A079F10895809108018093090180910601F3
S11303B0809307011092000191CF8091090182304E
S11303C061F2809109018130C1F6B2CF80910301BD
S11303D0909104019093040180930301CECF809106
S11303E00301909104019093040180930301089503
S11303F080910701833021F18091070181118FCF12
S1130400209101018091030190910401821B9109C3
S11304109093040180930301809106018093070166
S1130420089580910701823059F08091070181304D
S113043039F3089580910901833009F09ECF78CF74
S1130440209101018091030190910401820F911D7B
S11304509093040180930301809106018093070126
S113046008951F920F920FB60F9211240BB60F929C
S11304702F933F934F935F936F937F938F939F93A8
S1130480AF93BF93EF93FF9389B380930B0183B32F
S113049080930C010E94BA000E940801809103011C
S11304A0909104018115944048F08091030190914A
S11304B004019450909304018093030180910301FB
S11304C0909104018FEF8ABB80910B018BBB8091CB
S11304D00C0185BBFF91EF91BF91AF919F918F91DB
S11304E07F916F915F914F913F912F910F900BBE30
S11304F00F900FBE0F901F90189580910D018FB92A
S1130500779BFECF98B381E0982798BB98B389274F
S113051088BB08958823A1F08130A1F08230A1F036
S11305208330A1F08430A1F08530A1F08630A1F0B1
S11305308730A1F08830A1F08930A1F08FEF0895C1
S113054080EC089589EF089584EA089580EB089576
S113055089E9089582E9089582E8089588EF089565
S113056080E8089580E90895AF92BF92CF92DF9218
S1130570FF920F931F93CF93DF93EC019C01369569
S113058027953695279536952795A5ECB0E20E94D8
S1130590B603AC01529542954F7045275F704527CD
S11305A09A01ADECBCEC0E94B6039695879596959E
S11305B08795969587959C01220F331F880F991F65
S11305C0880F991F880F991F820F931F481B590B7F
S11305D0F42E9E013695279536952795ABE7B4E121
S11305E00E94B6038C01169507959801ADECBCECFE
S11305F00E94B603969587959695879596958795C7
S11306009C01220F331F880F991F880F991F880F91
S1130610991F820F931F081B190B9E010E94B6039A
S11306206C01D694C794D694C794D694C794960173
S11306300E94B60396958795969587959695879586
S11306409C01220F331F880F991F880F991F880F51
S1130650991F820F931F5601A81AB90A842F0E946A
S11306608A0280931E01802F0E948A0280931F01B8
S1130670DFEFD09320018A2D0E948A02809321010A
S11306808C2F9AE0C99E801911240E948A028093BB
S11306902201F11008C0D0931E01011104C0D093AF
S11306A01F01AA2051F0DF91CF911F910F91FF906C
S11306B0DF90CF90BF90AF900895D0932101F3CFF6
S11306C087B7816087BF83B7856083BF87E987BBAE
S11306D080E58DB981E08EB9789480EF84BB80EC9D
S11306E082B983B9C0E0D1E01FEF00E480E1D82EE5
S11306F090E2E92E20E3F22E8FE39FE10197F1F7D8
S113070000C0000080910D018FB9779BFECF88B3A4
S11307108D2788BB88B38D2788BB80910301909176
S113072004010E94B4021ABBC53088F4EC2FF0E037
S1130730E25EFE4F80818BBBCC2361F0C13069F057
S1130740C23071F0C33079F015BAC5E0D5CF8091CD
S11307501E018BBB05BBC1E0CFCFF5BAC2E0CCCF45
S1130760E5BAC3E0C9CFD5BAC4E0C6CFA29FB001F1
S1130770B39FC001A39F700D811D1124911DB29FD1
S1110780700D811D1124911D0895F894FFCF72
S105078E010163
S9030000FC
