:100000000C9446000C9458000C9458000C94580022
:100010000C9458000C9458000C9458000C94580000
:100020000C9458000C9458000C9458000C945800F0
:100030000C9458000C9458000C9458000C945800E0
:100040000C9458000C9458000C9458000C945800D0
:100050000C9458000C9458000C9458000C945800C0
:100060000C9458000C9458000C9458000C945800B0
:100070000C9458000C9458000C9458000C945800A0
:100080000C9458000C9458000C94580011241FBE76
:10009000CFEFD0E1DEBFCDBF21E0A0E0B1E001C0F5
:1000A0001D92A130B207E1F70E947A000C94A400DF
:1000B0000C94000087E987BB80E58DB981E08EB99B
:1000C00008951FB8779BFECF8FB1089593B180E458
:1000D000982793B993B1892783B983B1805883B99D
:1000E0001FB8779BFECF8FB18093000183B18058FA
:1000F00083B9089587E987BB80E58DB981E08EB922
:1001000080EC82B983B9C79AC0E10E9466008091F1
:100110000001833FD1F72FEF89E698E1215080401D
:100120009040E1F700C0000088B38C2788BB2FEF18
:1001300089E698E1215080409040E1F700C000003E
:0C01400088B38C2788BBE1CFF894FFCF78
:00000001FF
