S0100000746573746C6564312E73726563EE
S11300000C9446000C9450000C9450000C94500036
S11300100C9450000C9450000C9450000C9450001C
S11300200C9450000C9450000C9450000C9450000C
S11300300C9450000C9450000C9450000C945000FC
S11300400C9450000C9450000C9450000C945000EC
S11300500C9450000C9450000C9450000C945000DC
S11300600C9450000C9450000C9450000C945000CC
S11300700C9450000C9450000C9450000C945000BC
S11300800C9450000C9450000C94500011241FBE8A
S1130090CFEFD0E1DEBFCDBF0E9452000C94B4007C
S11300A00C9400008FEF8ABB90EF94BB11BA82BB13
S11300B08BBBE0E47EEF6DEF5BEF47EF3FEE2FEDA0
S11300C09FEB8FE7E5BB7BBBAFEFB3ECF9E0A1504F
S11300D0B040F040E1F700C000006BBBAFEFB3EC01
S11300E0F9E0A150B040F040E1F700C000005BBB74
S11300F0AFEFB3ECF9E0A150B040F040E1F700C03D
S113010000004BBBAFEFB3ECF9E0A150B040F040BE
S1130110E1F700C000003BBBAFEFB3ECF9E0A15046
S1130120B040F040E1F700C000002BBBAFEFB3ECF0
S1130130F9E0A150B040F040E1F700C000009BBBE3
S1130140AFEFB3ECF9E0A150B040F040E1F700C0EC
S113015000008BBBAFEFB3ECF9E0A150B040F0402E
S10F0160E1F700C00000AECFF894FFCF20
S9030000FC
