S01D00006261725F67726170685F6E6F696E74735F736B656C2E7372656359
S11300000C9446000C9450000C9450000C94500036
S11300100C9450000C9450000C9450000C9450001C
S11300200C9450000C9450000C9450000C9450000C
S11300300C9450000C9450000C9450000C945000FC
S11300400C9450000C9450000C9450000C945000EC
S11300500C9450000C9450000C9450000C945000DC
S11300600C9450000C9450000C9450000C945000CC
S11300700C9450000C9450000C9450000C945000BC
S11300800C9450000C9450000C94500011241FBE8A
S1130090CFEFD0E1DEBFCDBF0E9459000C949A008F
S11300A00C94000087E087BB80E58DB981E08EB9B0
S11300B0089587E087BB80E58DB981E08EB921E0A2
S11300C08FB9779BFECF98B3922798BB98B39227AA
S11300D098BB880F09F481E03FEF41EE94E0315082
S11300E040409040E1F700C000003FEF41EE94E053
S11300F0315040409040E1F700C000003FEF41EE36
S113010094E0315040409040E1F700C000003FEFE0
S113011041EE94E0315040409040E1F700C00000CF
S11301203FEF41EE94E0315040409040E1F700C091
S10B01300000C6CFF894FFCFD4
S9030000FC
