S010000074657374507573682E73726563B4
S11300000C9446000C9458000C9458000C9458001E
S11300100C9458000C9458000C9458000C945800FC
S11300200C9458000C9458000C9458000C945800EC
S11300300C9458000C9458000C9458000C945800DC
S11300400C9458000C9458000C9458000C945800CC
S11300500C9458000C9458000C9458000C945800BC
S11300600C9458000C9458000C9458000C945800AC
S11300700C9458000C9458000C9458000C9458009C
S11300800C9458000C9458000C94580011241FBE72
S1130090CFEFD0E1DEBFCDBF21E0A0E0B1E001C0F1
S11300A01D92A230B207E1F70E9475000C94A800DB
S11300B00C94000089B32091000130910101220FBA
S11300C0331F306E082E000C990B8827990F881F58
S11300D09927282B392B309301012093000181E0CB
S11300E02115304F09F080E008951ABA8FEF8BBBC9
S11300F087BB80EF88BB51EF40EF06C08FE39FE1E1
S11301000197F1F700C0000089B3209100013091FC
S11301100101220F331F306E082E000C990B882723
S1130120990F881F9927822B932B90930101809319
S113013000018115904F11F758BB9FEF29E688E124
S1130140915020408040E1F700C0000048BBD6CF6A
S1070150F894FFCF4D
S9030000FC
