S014000053485432315F73616D706C652E73726563DD
S11300000C94D4000C94F1000C94F1000C94F100C5
S11300100C94F1000C94F1000C94F1000C94F10098
S11300200C94F1000C94F1000C94F1000C94F10088
S11300300C94F1000C94F1000C94F1000C94F10078
S11300400C94F1000C94F1000C94F1000C94F10068
S11300500C94F10008000000BE922449123EABAAA1
S1130060AA2ABECDCCCC4C3E00000080BEABAAAACE
S1130070AA3E00000000BF000000803F0000000016
S113008000084178D3BB4387D1133D190E3CC3BD4F
S11300904282AD2B3E68EC8276BED98FE1A93E4CFC
S11300A080EFFFBE01C4FF7F3F000000000000405E
S11300B07A10F35A00A0724E18090010A5D4E80073
S11300C000E87648170000E40B54020000CA9A3B8B
S11300D0000000E1F5050000809698000000404211
S11300E00F000000A086010000001027000000009F
S11300F0E803000000006400000000000A000000A3
S113010000000100000000002C76D888DC674F084E
S113011023DFC1DFAE59E1B1B796E5E3E453C63A54
S1130120E651997696E8E6C28426EB898C9B62EDCB
S1130130407C6FFCEFBC9C9F40F2BAA56FA5F49085
S1130140055A2AF75C936B6CF9676DC11BFCE0E4FC
S11301500D47FEF520E6B500D0ED902E0300943552
S113016077050080841E080000204E0A000000C8A5
S11301700C333333330F986E12831141EF8D2114F6
S1130180893BE65516CFFEE6DB18D1844B381BF7C6
S11301907C1D901DA4BBE424203284725E22810065
S11301A0C9F124ECA1E53D2711241FBECFE5D8E019
S11301B0DEBFCDBF10E0A0E6B0E0E8E6F0E102C0AB
S11301C005900D92A63EB107D9F720E0A6EEB0E067
S11301D001C01D92AE3EB207E1F70E94E7020C9403
S11301E032080C9400000E941A0380E80E9426033F
S11301F08EEF0E9426030E94200387EA91E601976E
S1130200F1F700C0000008950E941A0380E80E94DC
S1130210260386EE0E9426030E9420030895CF93AE
S1130220DF93C82F0E941A0380E80E9426038C2FB4
S11302300E9426030E941A0381E80E9426030E945A
S11302403303C82F0E943303D82F0E943A030E941D
S113025020032D2F30E0C9019C2B8C7FDF91CF919F
S113026008950F931F93CF93DF9300D000D0CDB7A1
S1130270DEB785EE0E940F01BC0180E090E00E9491
S11302800E0420E030E04AEF5AE30E94250520E006
S113029030E040EC50E40E9441036093EA00709324
S11302A0EB008093EC009093ED008E010F5F1F4FE5
S11302B022E045E00E94BB0580E690E00E94D60261
S11302C0C8010E94D6028AE690E00E94D60287EA1C
S11302D091E60197F1F700C000000F900F900F9086
S11302E00F90DF91CF911F910F9108950F931F935A
S11302F0CF93DF9300D000D0CDB7DEB783EE0E945A
S11303000F01BC0180E090E00E940E0422E538EB6E
S11303104FE25BE30E94250526E636E64BE352E412
S11303200E9441036093E6007093E7008093E80025
S11303309093E9008E010F5F1F4F22E045E00E9479
S1130340BB0581E790E00E94D602C8010E94D60254
S11303508EE790E00E94D60287EA91E60197F1F7D2
S113036000C000000F900F900F900F90DF91CF917D
S11303701F910F9108954F925F926F927F928F9287
S11303809F92AF92BF92CF92DF92EF92FF920F9320
S11303901F93CF93DF9300D000D0CDB7DEB7C090CA
S11303A0E600D090E700E090E800F090E90060916A
S11303B0EA007091EB008091EC009091ED000E94B6
S11303C0DA044B015C0120E030E040EF50E4C70167
S11303D0B6010E9425052B013C012DEC3CE44DE6C1
S11303E053E4C701B6010E9442039B01AC01C3015F
S11303F0B2010E94A60329E338E249E25FE30E94C6
S113040042036B017C0120E030E040E050E4C50190
S1130410B4010E9441039B01AC01C701B6010E94D3
S113042042036B017C0129E338E249E25FE30E9465
S113043041032DEC3CE44DE653E40E9425054B01B9
S11304405C01A701960164E872E982E091E40E94EC
S113045041039B01AC01C501B4010E94A6038E01B6
S11304600F5F1F4F22E045E00E94BB0584E890E047
S11304700E94D602C8010E94D60283EE90E00E9438
S1130480D6020F900F900F900F90DF91CF911F9194
S11304900F91FF90EF90DF90CF90BF90AF909F901F
S11304A08F907F906F905F904F9008950F931F935C
S11304B0CF93DF93CDB7DEB728970FB6F894DEBF9E
S11304C00FBECDBF0E941A0380E80E9426038AEF64
S11304D00E9426038FE00E9426030E941A0381E8EB
S11304E00E9426030E9433030E9433030E943303B5
S11304F00E9433030E9433030E9433030E94330398
S11305000E943A030E9420030E941A0380E80E947A
S113051026038CEF0E94260389EC0E9426030E9486
S11305201A0381E80E9426030E943303182F0E94B5
S11305303303082F0E9433030E9433030E943A03BB
S11305400E943A030E942003F0E0F12B9F2F990FA1
S1130550990B202F3F2F492F592F692F792F892F3E
S11305600E944B048E010F5F1F4F20E048E00E9461
S1130570BB058FE890E00E94D602C8010E94D60213
S113058083EE90E00E94D60228960FB6F894DEBF60
S11305900FBECDBFDF91CF911F910F91089587E6D4
S11305A089B910BC539A86E880BD0895FC01208166
S11305B0222361F031968BB12CB987EA91E6019739
S11305C0F1F700C0000021912111F5CF089583E0D7
S11305D084BB85BB0E9414030E94CF0287EA91E684
S11305E00197F1F700C000008EE990E00E94D60266
S11305F00E94F3000E94F3000E9404010E9456022C
S11306000E9476010E9431010E94BB0180EB90E0C0
S11306100E94D6029FE32DE083E091502040804069
S1130620E1F700C00000E6CF11B88CE080B984EA9D
S113063086BF089584EA86BF06B607FEFDCF0895F7
S113064084E986BF06B604FCFDCF089583B984E827
S113065086BF06B607FEFDCF91B1987F81E0983240
S113066009F480E0089584EC86BF06B607FEFDCF4A
S113067083B1089584E886BF06B607FEFDCF83B133
S113068008955058BB27AA270ED05AC14BD130F039
S113069050D120F031F49F3F11F41EF440C10EF408
S11306A0E095E7FB36C1E92F5CD180F3BA17620706
S11306B073078407950718F071F49EF574C10EF45E
S11306C0E0950B2EBA2FA02D0B01B90190010C015E
S11306D0CA01A0011124FF27591B99F0593F50F476
S11306E0503E68F11A16F040A22F232F342F4427CE
S11306F0585FF3CF469537952795A795F0405395C6
S1130700C9F77EF41F16BA0B620B730B840BBAF095
S11307109150A1F0FF0FBB1F661F771F881FC2F700
S11307200EC0BA0F621F731F841F48F48795779514
S11307306795B795F7959E3F08F0B3CF9395880FCB
S113074008F09927EE0F9795879508950CD0F8C077
S1130750F0D040F0E7D030F021F45F3F19F0D9C079
S1130760511122C1DCC0FDD098F39923C9F355235C
S1130770B1F3951B550BBB27AA2762177307840790
S113078038F09F5F5F4F220F331F441FAA1FA9F346
S113079033D00E2E3AF0E0E830D091505040E69538
S11307A0001CCAF729D0FE2F27D0660F771F881F99
S11307B0BB1F261737074807AB07B0E809F0BB0B88
S11307C0802DBF01FF2793585F4F2AF09E3F5105AC
S11307D068F09FC0E9C05F3FECF3983EDCF3869578
S11307E077956795B795F7959F5FC9F7880F911D22
S11307F09695879597F90895E1E0660F771F881F0E
S1130800BB1F621773078407BA0720F0621B730BC0
S1130810840BBA0BEE1F88F7E0950895E89409C09D
S113082097FB3EF490958095709561957F4F8F4F1F
S11308309F4F9923A9F0F92F96E9BB279395F69535
S1130840879577956795B795F111F8CFFAF4BB0FB3
S113085011F460FF1BC06F5F7F4F8F4F9F4F16C017
S1130860882311F096E911C0772321F09EE8872FA1
S1130870762F05C0662371F096E8862F70E060E05D
S11308802AF09A95660F771F881FDAF7880F9695D6
S1130890879597F90895E894F92F96EBFF2381F053
S11308A0121613061406440B9395F69587957795BF
S11308B0679557954040FF23B9F71BC099270895C2
S11308C0882351F49850D2F7872B762F652F542F15
S11308D0432F322F20E0B1F3121613061406440BF3
S11308E088233AF09A95440F551F661F771F881F77
S11308F0CAF755234AF4440F551F11F460FF04C08E
S11309006F5F7F4F8F4F9F4F880F9695879597F90D
S1130910089597F99F6780E870E060E008959FEF7D
S113092080EC089500240A94161617061806090682
S1130930089500240A941216130614060506089551
S1130940092E0394000C11F4882352F0BB0F40F4D9
S1130950BF2B11F460FF04C06F5F7F4F8F4F9F4F19
S1130960089557FD9058440F551F59F05F3F71F09B
S11309704795880F97FB991F61F09F3F79F0879502
S11309800895121613061406551FF2CF4695F1DF8B
S113099008C0161617061806991FF1CF869571051B
S11309A0610508940895E894BB2766277727CB014F
S11309B097F908950AD029ED3BE54EED5EE345C075
S11309C00EF0A6C0ACCF6894A4CFD3DFC8F39923AC
S11309D0D1F3C6F3DF93CF931F930F93FF92C92FE5
S11309E0DD2788232AF02197660F771F881FDAF7FF
S11309F020E030E040E85FEB9FE3883920F0803E60
S1130A0030F021968F773EDEE4E5F0E003C03ADE75
S1130A10E1E8F0E08BD08B01BE01EC01FB2E6F57B7
S1130A2071097595771F880B990BFADE28E132E777
S1130A3041E35FE316D0AF2D9801AE01FF900F9113
S1130A401F91CF91DF912FDE7BCF0BD079CF6ADF5F
S1130A5028F06FDF18F0952309F05BCF60CF1124E5
S1130A60A3CF7FDFA0F3959FD1F3950F50E0551FDF
S1130A70629FF001729FBB27F00DB11D639FAA27EF
S1130A80F00DB11DAA1F649F6627B00DA11D661F3E
S1130A90829F2227B00DA11D621F739FB00DA11D5F
S1130AA0621F839FA00D611D221F749F3327A00D19
S1130AB0611D231F849F600D211D822F762F6A2FB5
S1130AC011249F5750408AF0E1F088234AF0EE0F3A
S1130AD0FF1FBB1F661F771F881F91505040A9F747
S1130AE09E3F510570F015CF5FCF5F3FECF3983E0A
S1130AF0DCF3869577956795B795F795E7959F5FAE
S1130B00C1F7FE2B880F911D9695879597F9089547
S1130B109F3F31F0915020F4879577956795B7956D
S1130B20880F911D9695879597F90895DF93CF9334
S1130B301F930F93FF92EF92DF927B018C016894D5
S1130B4005C0DA2EEF018DDFFE01E894A591259111
S1130B50359145915591AEF3EF01A5DDFE01970165
S1130B60A801DA9479F7DF90EF90FF900F911F912D
S1130B70CF91DF910895EF920F931F93CF93DF935B
S1130B80E80147FF02C034E101C034E0E42FFF274D
S1130B90E7FDF095F7FF03C0F195E195F109E32E28
S1130BA0022F2E2FAE010E94DC05CE01DF91CF91E2
S1130BB01F910F91EF9008956F927F929F92AF9241
S1130BC0BF92CF92DF92EF92FF920F931F93CF9336
S1130BD0DF93CDB7DEB729970FB6F894DEBF0FBE0B
S1130BE0CDBF6A01B22E102F0C3320F4FF24F394EE
S1130BF0F00E02C04CE3F42E0F2D27E0AE014F5F40
S1130C005F4F0E945A077981272F2970213031F0D4
S1130C10E1FC06C0E0FC06C060E005C06DE203C074
S1130C206BE201C060E2AE2DA07173FF36C0662393
S1130C3011F084E001C083E08B1510F4B81A01C0F0
S1130C40B12CA1110BC0F6018B2D90E2882319F071
S1130C5091938150FBCFCB0CD11CB12C662331F086
S1130C60F601608396012F5F3F4F6901C601039629
S1130C70E2FE05C02EE4F601208331E404C02EE632
S1130C80F601208331E631832283FC012B2D30E2EF
S1130C902223F1F131932150FBCF72FF40C0662330
S1130CA011F084E001C083E08B1510F4B81A01C080
S1130CB0B12CA1110BC0F6018B2D90E2882319F001
S1130CC091938150FBCFCB0CD11CB12C662331F016
S1130CD0F601608396012F5F3F4F6901C6010396B9
S1130CE0E2FE07C029E4F60120832EE4218326E4F2
S1130CF006C029E6F60120832EE6218326E6228318
S1130D00FC012B2D30E2222319F031932150FBCF2B
S1130D10FC01EB0DF11D10828EEF9FEFB7C0B1E027
S1130D20611101C0B0E04B2F50E01816190624F4ED
S1130D309C012F5F3F4F02C021E030E0240F351F9C
S1130D40112329F0412F50E04F5F5F4F02C040E074
S1130D5050E0420F531F2B2D30E04217530714F479
S1130D60B41A01C0B12C2E2D287159F4F6012B2D83
S1130D7030E2222319F031932150FBCFCB0CD11C4C
S1130D80B12CBB2331F0F601608396012F5F3F4FF6
S1130D906901A1110BC0F6012B2D30E3222319F0B8
S1130DA031932150FBCFCB0CD11CB12CF80E0A810E
S1130DB0372F3071A32E74FF03C0013309F4FA9462
S1130DC01F142CF42F2D293018F028E001C021E045
S1130DD0682F392F97FF02C060E030E0462F532F71
S1130DE0612C712C3EE2932EBC01621B71099B01A4
S1130DF0DC01A41BB50BE1E0F0E0EC0FFD1FAE0F2E
S1130E00BF1FE12EF12CF194E194F1084F3FFFEF65
S1130E105F0731F4F6019082B6016F5F7F4F6B017B
S1130E20841795074CF02417350734F4BD01660D7B
S1130E30771DFB01118101C010E341505109FFEFFF
S1130E406F1A7F0AB6016F5F7F4F4E155F0524F05E
S1130E50F60110836B01DACF4817590739F40633CA
S1130E6020F4053319F4A11001C011E3F601108335
S1130E70FB018B2D90E2882319F091938150FBCFD5
S1130E80FB01EB0DF11D108280E090E029960FB676
S1130E90F894DEBF0FBECDBFDF91CF911F910F91AC
S1130EA0FF90EF90DF90CF90BF90AF909F907F9096
S1130EB06F900895283008F027E03327DA01990F5E
S1130EC0311D87FD916000966105710539F432602A
S1130ED02E5F3D9330E32A95E1F708959F3F30F06C
S1130EE080387105610509F03C5F3C5F3D939130AA
S1130EF008F08068911DDF93CF931F930F93FF92A7
S1130F00EF92192F987F9695E92F96959695E90F6C
S1130F10FF27E85FFE4F99273327EE24FF24A7011C
S1130F20E70105900894079428F4360FE71EF81E8D
S1130F30491F511D660F771F881F991F0694A1F73B
S1130F400590079428F4E70EF81E491F561FC11D8B
S1130F50770F881F991F661F0694A1F705900794C1
S1130F6028F4F80E491F561FC71FD11D880F991F5B
S1130F70661F771F0694A1F70590079420F4490F84
S1130F80561FC71FD81F990F661F771F881F069407
S1130F90A9F784911095177041F0D695C795579588
S1130FA04795F794E7941A95C1F7EEEAF0E0689450
S1130FB01590159135916591959105907FE2739502
S1130FC0E118F10A430B560BC90BD009C0F7E10C29
S1130FD0F11E431F561FC91FD01D7EF4703311F438
S1130FE08A95E6CFE894015030F0080F0AF4002700
S1130FF0021708F4202F2395022F7A3328F079E37F
S11310007D932A95E9F710C07D932A9589F6069475
S113101097956795379517951794E118F10A430B3F
S1131020560BC90BD00998F023957E9173957A33AA
S113103008F070E37C932013B8F77E9170617D9380
S113104030F0839571E37D9370E32A95E1F71124E1
S1131050EF90FF900F911F91CF91DF91992787FD1A
S10B106090950895F894FFCF68
S113106848756D69646974793A00202552480D0AF7
S11310780054656D70657261747572653A0020B0CC
S1131088430D0A0044657720506F696E743A005323
S1131098657269616C204E756D6265723A005348D9
S11310A85432312052656164696E67733A0D0A00DF
S11310B82D2D2D2D2D2D2D2D2D2D2D2D2D2D2D2D54
S11310C82D2D2D2D2D2D2D2D2D2D2D2D2D2D2D2D44
S11310D82D2D2D2D2D2D2D2D2D2D2D2D2D2D2D2D34
S10910E82D2D2D0D0A0060
S9030000FC
