:100000000C9497000C94B6000C94B6000C94B600B7
:100010000C94B6000C94B6000C94B6000C94B60088
:100020000C94B6000C94B6000C944C070C94B600DB
:100030000C9446010C94B6000C94B6000C94B600D7
:100040000C9457040C94B6000C942D040C94B60038
:100050000C94B6000C94B6000C94B6000C94B60048
:100060000C94B6000C94B6000C94B6000C94B60038
:100070000C94B6000C94AB070C94B6000C94B6002C
:100080000C94B6000C943C0E0C94B6007D0E540EED
:10009000540E540E540E540E540E540E7D0E540E27
:1000A000540E540E540E540E540E540E870E540E0D
:1000B000540E540E540E540E540E540E540E540E30
:1000C000540E540E540E540E540E540E870E540EED
:1000D000540E540E540E540E540E540E540E540E10
:1000E000540E540E540E540E540E540E9E0E540EB6
:1000F000540E540E540E540E540E540EA20E540EA2
:10010000540E540E540E540E540E540E540E540EDF
:10011000540E540E540E540E540E540EB00E540E73
:10012000540E540E540E540E540E540E6E0E1124D2
:100130001FBECFEFD0E1DEBFCDBF11E0A0E0B1E048
:10014000ECE0F5E200E00BBF02C007900D92A8338F
:10015000B107D9F722E0A8E3B1E001C01D92A638AB
:10016000B207E1F70E94750F0C9484120C94000002
:10017000482FE82FF0E099B3EE0FFF1FEF59FE4F25
:1001800020813181220F331F306E892F90E002C011
:10019000959587954A95E2F781709927282B392BF9
:1001A0003183208381E02115304F09F080E00895EC
:1001B00080914C0183FD0EC080E28093000180930A
:1001C0000101809302018093030180930401109246
:1001D0003E01089581E4809300019CE49093010125
:1001E0008093020182E5809303018DE480930401F2
:1001F00010923E01089580B7886080BF87B7816004
:1002000087BF83B7816083BF089585B58C6785BD3F
:1002100087B7806487BF83B58F6783BD0895EBE898
:10022000F0E0808181688083EAE8F0E08081896085
:100230008083EDE7F0E08081846080838FE790E049
:10024000909387008093860008958EB589608EBD57
:1002500087B7806187BF8FE39FE19BBD8ABD08950B
:100260009091600181E08927809360010E942E0EA9
:10027000909386018093850160918501709186013C
:100280004091600187E991E00C941B0D1F920F9241
:100290000FB60F9211240BB60F922F933F934F93EB
:1002A0005F936F937F938F939F93AF93BF93CF93FE
:1002B000DF93EF93FF9380915E0190915F01019630
:1002C00090935F0180935E01C0915C01D0915D01CC
:1002D0002196D0935D01C0935C0180913E018130F5
:1002E00009F455C080914C0183FF19C090915201CF
:1002F00080914601981709F440C080914C0184FD1B
:100300002AC080914001813009F444C080913F01AE
:10031000813061F492B384E0892782BB07C0809169
:100320004C018F7E80934C0110923F01FF91EF9121
:10033000DF91CF91BF91AF919F918F917F916F91FD
:100340005F914F913F912F910F900BBE0F900FBE79
:100350000F901F90189580913F01813091F6809306
:10036000400180914C018F7E80934C0110925D0181
:1003700010925C0110923F01C9CF9091530180917E
:1003800032019813BACF81E080933F01B6CF0E942B
:10039000D800A8CF10923F01C03DD74009F0B6CF9A
:1003A0002091200130912101215031093093210108
:1003B0002093200110925D0110925C012091200198
:1003C00030912101232B09F0A1CF80933F018AE0D6
:1003D00090E090932101809320011092400196CFEC
:1003E000809154018B3331F0809154018F5F809361
:1003F0005401089510925401809153018B3331F0D0
:10040000809153018F5F809353010895109253019F
:1004100080915201873179F0809152018F5F8093F2
:100420005201809136018D3049F0809136018F5F05
:1004300080933601089510925201F3CF81E08093AA
:10044000360108958823A1F08130A1F08230A1F017
:100450008330A1F08430A1F08530A1F08630A1F086
:100460008730A1F08830A1F08930A1F08FEF089596
:1004700080EC089589EF089584EA089580EB08954B
:1004800089E9089582E9089582E8089588EF08953A
:1004900080E8089580E90895E1E6F0E080818F77B3
:1004A0008083E2E6F0E080818F77808387B1876484
:1004B00087B986B1876886B90895369A349BFECF8E
:1004C000349A84B195B1089580914C0181FD76C034
:1004D0002091530187E62802912D11249595959539
:1004E00027FD93953AE0939F201911242093500102
:1004F000909153019802212D11242595259597FD62
:1005000023952802912D11249595959527FD939576
:100510003AE0939F2019112420934F0190915101AB
:100520009111CAC0209152012802912D1124959554
:10053000959527FD93953AE0939F201911242093D8
:100540004E01209152012802912D112495959595E7
:1005500027FD93959802812D11248595859597FD0A
:1005600083952AE0829F9019112490934D018091E8
:10057000AA0184608093AA0180914D010E94220209
:100580008093A80180914E010E9422028093A901CC
:1005900080914F010E9422028093AB018091500113
:1005A0000E9422028093AC0180914C0183FD7EC0A9
:1005B0008091AC0180688093AC01089580914C01DA
:1005C00080FDF2CF80914C0181FFEECF209132016E
:1005D00087E62802912D11249595959527FD9395F1
:1005E0003AE0939F20191124209344019091320105
:1005F0009802212D11242595259597FD23952802F4
:10060000912D11249595959527FD93953AE0939F0B
:10061000201911242093430190915101911181C01F
:10062000209146012802912D11249595959527FD3D
:1006300093953AE0939F2019112420934201209131
:1006400046012802912D11249595959527FD9395A6
:100650009802812D11248595859597FD83952AE033
:10066000829F90191124909341018091AA01846086
:100670008093AA01809141010E9422028093A801E7
:10068000809142010E9422028093A901809143013E
:100690000E9422028093AB01809144010E942202B9
:1006A0008093AC0180914C0183FF82CF8091AC019B
:1006B0008F778093AC010895209136012802912D07
:1006C00011249595959527FD93953AE0939F2019D0
:1006D000112420934E01209136012802912D1124DE
:1006E0009595959527FD93959802812D11248595D3
:1006F000859597FD83952AE0829F90191124909308
:100700004D01809152018C3034F08091AA018B7F91
:100710008093AA0131CF8091AA0184608093AA01BD
:100720002BCF209145012802912D11249595959567
:1007300027FD93953AE0939F2019112420934201BD
:10074000209145012802912D11249595959527FD1D
:1007500093959802812D11248595859597FD839514
:100760002AE0829F901911249093410180914601C3
:100770008C3034F08091AA018B7F8093AA017ACFCC
:100780008091AA0184608093AA0174CF20913801DE
:100790002130A9F183E70E94FA0E80E00E94FA0E50
:1007A0000E943001E7E9F1E001900020E9F731977C
:1007B000AF01475951404093390110923A015527F2
:1007C00041155105B1F021E080E090E001C0232FF8
:1007D000FC01E956FE4F3081FC01E050FF4F308BA9
:1007E000822F90E031E0320F8417950784F3209335
:1007F0003A01FA01E050FF4F80E2808B0895109299
:100800003801E7E8F1E001900020E9F73197AF0106
:10081000475851404093390110923A0155274115EC
:100820005105A9F080E090E001C0232FFC01E050C9
:10083000FF4FDC01A957BE4F8C91808F822F90E033
:1008400031E0320F8417950784F320933A01FA01BF
:10085000E050FF4F80E2808F9DCF1F920F920FB626
:100860000F9211240BB60F928F939F93EF93FF93E8
:100870008CB18093A701E0915B0191E09E0F909372
:100880005B01F0E0E957FE4F8083811105C081E0F4
:100890008093380110925B01FF91EF919F918F91AE
:1008A0000F900BBE0F900FBE0F901F9018951F92C8
:1008B0000F920FB60F9211240BB60F922F933F9306
:1008C0004F935F936F937F938F939F93AF93BF9358
:1008D000EF93FF9380915A018F5F80935A018A3F73
:1008E00031F180E091E00E94420880915A018F77B7
:1008F00059F40E94F0019091AA0183E08927809326
:10090000AA0181E080933B01FF91EF91BF91AF91EC
:100910009F918F917F916F915F914F913F912F9117
:100920000F900BBE0F900FBE0F901F9018950E9456
:10093000C603D7CF80914C018823A1F080914C0150
:1009400080FD15C080914C0180FD04C080914C0158
:1009500081FD11C080914C0180FF08C080914C0145
:1009600081FF04C0109235011092340108958091E6
:100970004C0181FDE7CF81E0809335018093340104
:1009800008951ABA8FEF8BBB80E785BB10924B019D
:1009900080914B01853008F04EC0A8E051E074E032
:1009A00062E00AC080914B018F5F80934B01809180
:1009B0004B01853008F03FC040914B01E42FF0E03F
:1009C00099B3EE0FFF1FEF59FE4F20813181220FA7
:1009D000331F306E892F90E002C0959587954A9518
:1009E000E2F781709927822B932B91838083811565
:1009F000904FC1F680914B01811106C080914C014E
:100A0000852780934C01CECF80914B018130C1F07E
:100A100080914B018230D1F080914B018330E1F025
:100A200080914B01843009F0BDCF80914C018061F1
:100A300080934C01B7CF0E949A0480E685BB08954D
:100A400080914C01862780934C01ACCF80914C0162
:100A5000872780934C01A6CF80914C018A278093F1
:100A60004C0150933E019ECF1FB8779BFECF8FB1B4
:100A7000089593B180E4982793B993B1892783B9F6
:100A800083B1805883B91FB8779BFECF8FB1809315
:100A9000470183B1805883B9809147018093570102
:100AA00087E080934801809148018230D8F041E08E
:100AB00050E08091480120915701BA0102C0660FB1
:100AC000771F8A95E2F7CB018095909582238093DA
:100AD00057018091480181508093480180914801DD
:100AE000823038F78091470186958695809355012D
:100AF00087E080934801809148018230D8F041E03E
:100B000050E08091480120915501BA0102C0660F62
:100B1000771F8A95E2F7CB01809590958223809389
:100B2000550180914801815080934801809148018E
:100B3000823038F780913301813009F47CC0809194
:100B40005701813009F486C0813008F48EC08230AC
:100B500009F468C0833009F0A0C080915801813049
:100B600009F4BEC080915801823029F580914C0172
:100B700080FF64C180914C0181FD60C1909134017E
:100B800080915201891B8093520190913401809190
:100B90003601891B809336018091520187FD74C113
:100BA0008091360118161CF08CE0809336018091FC
:100BB00057018093580180915501813009F464C038
:100BC000813008F482C0823009F475C0833009F0A6
:100BD0006DC080915601813009F4ABC080915601FF
:100BE000823009F059C080914C0180FDD0C08091C5
:100BF0004C0180FDFFC080914C0181FFFBC09091B2
:100C0000350180913201891B80933201809132013C
:100C100087FF03C08BE3809332018091550180935D
:100C20005601089580915801833009F2809158014E
:100C30008111C1CFBCCF8091570180935801809121
:100C400055018093560110923301809157018130F4
:100C500009F07ACF80915801882309F4A8CF8091B8
:100C60005801833009F0A7CFA2CF8091580182307C
:100C700009F49DCF80915801813009F498CF80917B
:100C80005501813009F09CCF80915601882329F2CB
:100C900080915601833009F208958091520180932A
:100CA0005201809136018093360185CF80915301A6
:100CB00080935301089580915601833009F4ADCF9C
:100CC000809156018111E8CFA8CF809156018230E2
:100CD00009F4A3CF80915601813009F49ECF089585
:100CE00080914C0180FD66C080914C0180FD5FCFFA
:100CF00080914C0181FF5BCF80913401909146013E
:100D0000890F809346018091340190914501890FAC
:100D10008093450180914601883111F4109246017B
:100D2000809145018D3009F042CF81E080934501EB
:100D30003ECF80914C0180FD17C080914C0180FD19
:100D40006BC080914C0181FF67C08091350190910B
:100D50003201890F80933201809132018C3309F086
:100D60005CCF1092320159CF80914C0181FDE5CFCB
:100D70008091350190915301890F809353018091A7
:100D800053018C3309F049CF1092530146CF809123
:100D90004C0181FD2CCF9091350180915301891B2D
:100DA000809353018091530187FF37CF8BE380936A
:100DB000530133CF80914C0181FD96CF8091340156
:100DC00090915201890F809352018091340190914A
:100DD0003601890F8093360180915201883109F4E0
:100DE00050C0809136018D3009F0E1CE81E08093D2
:100DF0003601DDCE80914C0180FD0FCF80914C01FA
:100E000081FD0BCF80918600909187000197909390
:100E100087008093860001CF80914C0180FDFDCE3C
:100E200080914C0181FDF9CE8091860090918700E0
:100E300001969093870080938600EFCE80914C01BD
:100E400080FDB5CE80914C0181FFB1CE90913401EF
:100E500080914601891B80934601909134018091D5
:100E60004501891B809345018091460187FD10C093
:100E70008091450118160CF49ACE8CE080934501C0
:100E800096CE10925201ADCF87E18093520188CE69
:100E900087E180934601ECCF1F920F920FB60F921D
:100EA00011240BB60F922F933F934F935F936F9341
:100EB0007F938F939F93AF93BF93EF93FF9389B3E8
:100EC0008093490183B380934A010E94C1048091B9
:100ED0004C0182FB882780F9809351010E943905DB
:100EE0008FEF8ABB809149018BBB80914A0185BB02
:100EF000FF91EF91BF91AF919F918F917F916F91F2
:100F00005F914F913F912F910F900BBE0F900FBEAD
:100F10000F901F90189587B3876087BB80E58DB9C8
:100F200081E08EB9089580914C018FB9779BFECFF7
:100F300098B381E0982798BB98B3892788BB089518
:100F4000E1E6F0E0808188608083E2E6F0E0808185
:100F5000877F808308951F920F920FB60F921124FE
:100F60000BB60F922F933F934F935F936F937F93A3
:100F70008F939F93AF93BF93EF93FF93809159010A
:100F80008F5F8093590199E8899F912D1124929543
:100F9000969597702CE3929F80191124811135C08A
:100FA000369A349BFECF349A84B195B190938401E4
:100FB00080938301609183017091840180E090E0CF
:100FC0000E94421127EE3BEF49EE5EE30E94D011F2
:100FD00020E030E048EC52E40E949F100E940C1187
:100FE00070933D0160933C0180913C0190913D01E3
:100FF0000A97F4F48AE090E090933D0180933C01DD
:1010000080913C0190913D0183BDFF91EF91BF9193
:10101000AF919F918F917F916F915F914F913F9190
:101020002F910F900BBE0F900FBE0F901F90189531
:1010300080913C0190913D018F3F910509F304F3AC
:101040008FEF90E090933D0180933C01D9CF91E0E8
:10105000811101C090E09FB9779BFECF6FB9779B5C
:10106000FECF809162008860809362008091620070
:10107000877F809362008FE99FE00197F1F700C0BE
:101080000000089521E02FB9779BFECF20917101D8
:10109000FC01E20FF11D80818FB9779BFECF80911B
:1010A000620088608093620080916200877F8093F5
:1010B0006200809171018F5F80937101803109F12D
:1010C000803209F0089595ED9A95F1F700001FB868
:1010D000779BFECF82E08FB9779BFECF8091620035
:1010E00088608093620080916200877F80936200B5
:1010F0008FE99FE00197F1F700C0000010927101A5
:10110000089585ED8A95F1F700001FB8779BFECF13
:1011100080EC8FB9779BFECF8091620088608093CE
:10112000620080916200877F809362008FE99FE078
:101130000197F1F700C0000080917101C1CF660FE7
:10114000660F660F605C1FB8779BFECF6FB9779B09
:10115000FECF2091620028602093620020916200FF
:10116000277F20936200AFE9BFE01197F1F700C03D
:101170000000FC019C01285F3F4F91E081919FB9E5
:10118000779BFECF8FB9779BFECF809162008860FE
:101190008093620080916200877F80936200AFE954
:1011A000BFE01197F1F700C00000E217F30731F735
:1011B000089590E4899F600D1124605C1FB8779BAF
:1011C000FECF6FB9779BFECF8091620088608093DD
:1011D000620080916200877F809362008FE99FE0C8
:1011E0000197F1F700C000000895811119C081E056
:1011F0008FB9779BFECF80E38FB9779BFECF80912D
:10120000620088608093620080916200877F809393
:1012100062008FE99FE00197F1F700C00000089598
:101220008436B0F48A3090F591E09FB9779BFECF79
:101230009DEC899F912D1124969596959695FAE0AF
:101240009F9F80191124805D8FB9779BFECFD7CFE8
:1012500099E2899F912D112492959F70905D21E0D4
:101260002FB9779BFECF9FB9779BFECF90916200FD
:1012700098609093620090916200977F90936200D3
:10128000EFE9FFE03197F1F700C0000099E2899F94
:10129000912D112492959F70282FF4E69F9F20197D
:1012A0001124922F2DEC929F912D112496959695B5
:1012B0009695905D21E02FB9779BFECF9FB9779BE4
:1012C000FECF9091620098609093620090916200CE
:1012D000977F90936200EFE9FFE03197F1F700C04C
:1012E0000000A2CF87FF0C94F50891E09FB9779B8F
:1012F000FECF9DE29FB9779BFECF909162009860F0
:101300009093620090916200977F90936200EFE962
:10131000FFE03197F1F700C0000081950C94F508CB
:101320001FB8779BFECF8EE08FB9779BFECF809161
:10133000620088608093620080916200877F809362
:1013400062008FE99FE00197F1F700C00000089567
:101350001FB8779BFECF8CE08FB9779BFECF809133
:10136000620088608093620080916200877F809332
:1013700062008FE99FE00197F1F700C00000089537
:101380001FB8779BFECF8EE18FB9779BFECF809100
:10139000620088608093620080916200877F809302
:1013A00062008FE99FE00197F1F700C00000089507
:1013B0001FB8779BFECF88E18FB9779BFECF8091D6
:1013C000620088608093620080916200877F8093D2
:1013D00062008FE99FE00197F1F700C000000895D7
:1013E000E2E6F0E08081886080838081877F80836F
:1013F00008951FB8779BFECF81E08FB9779BFECF12
:101400008091620088608093620080916200877F93
:10141000809362008FE99FE00197F1F700C0000020
:1014200008951FB8779BFECF82E08FB9779BFECFE0
:101430008091620088608093620080916200877F63
:10144000809362008FE99FE00197F1F700C00000F0
:1014500008951FB8779BFECF80EC8FB9779BFECFA6
:101460008091620088608093620080916200877F33
:10147000809362008FE99FE00197F1F700C00000C0
:10148000089590E131E020E23FB9779BFECF2FB97C
:10149000779BFECF8091620088608093620080918C
:1014A0006200877F80936200EFE9FFE03197F1F7F8
:1014B00000C00000915041F7089591E09FB9779BDB
:1014C000FECF8FB9779BFECF8091620088608093BA
:1014D000620080916200877F809362008FE99FE0C5
:1014E0000197F1F700C000000895FC0140E050E0D2
:1014F00060E071E0DF01A40FB51F8C917FB9779B8D
:10150000FECF8FB9779BFECF909162009860909349
:10151000620090916200977F909362008FE99FE054
:101520000197F1F700C000006F5F462F50E0DF0128
:101530000D900020E9F79D012E1B3F0B2250310931
:1015400024173507B8F608958FEF99EF0197F1F753
:1015500000C0000088E0809361001FB8779BFECF39
:1015600080E38FB9779BFECF809162008860809383
:10157000620080916200877F809362008FE99FE024
:101580000197F1F700C000001FB8779BFECF80E302
:101590008FB9779BFECF8091620088608093620054
:1015A00080916200877F809362008FE99FE00197BE
:1015B000F1F700C000001FB8779BFECF80E38FB922
:1015C000779BFECF8091620088608093620080915B
:1015D0006200877F809362008FE99FE00197F1F7B7
:1015E00000C000001FB8779BFECF88E38FB9779BC0
:1015F000FECF8091620088608093620080916200DB
:10160000877F809362008FE99FE00197F1F700C028
:1016100000001FB8779BFECF88E08FB9779BFECF85
:101620008091620088608093620080916200877F71
:10163000809362008FE99FE00197F1F700C00000FE
:101640001FB8779BFECF81E08FB9779BFECF80914B
:10165000620088608093620080916200877F80933F
:1016600062008FE99FE00197F1F700C000001FB80A
:10167000779BFECF86E08FB9779BFECF809162008B
:1016800088608093620080916200877F809362000F
:101690008FE99FE00197F1F700C000001FB8779B2A
:1016A000FECF8CE08FB9779BFECF8091620088607F
:1016B0008093620080916200877F809362008FE94F
:1016C0009FE00197F1F700C0000008954F925F92EC
:1016D0006F927F928F929F92AF92BF92CF92DF9242
:1016E000EF92FF920F931F93CF93DF93CDB7DEB7A7
:1016F00069970FB6F894DEBF0FBECDBF142F422EF0
:101700005E2C002379F06B017C01CC24F7FCC394A0
:10171000DD24EE24FF240C2D6B017C0197FDA5C078
:10172000C701B601442009F498C09E012F5F3F4FC6
:101730005901490166246A94640C712C3FEF631AC5
:10174000730A6A0C7B1C2AE030E040E050E00E9403
:101750003210E62F2A8B3B8B4C8B5D8B6A897B8901
:101760008C899D8920E32E0FF40121934F016E1681
:101770007F0649F799249394940CF501E40DF11D2B
:101780002EE220832AE030E040E050E00E94321058
:10179000E62F2A8B3B8B4C8B5D8B6E8B7F8B888FE0
:1017A000998F6A897B898C899D8931E0390DD501B2
:1017B000A90DB11DE05DEC93932E611571058105B6
:1017C000910501F7112361F051104DC090E23117DE
:1017D00038F4F501E30FF11D90833F5F1313F9CF48
:1017E000002331F0F501E30FF11D9DE290833F5F8F
:1017F00021E03150F501E30FF11D90812FB9779B66
:10180000FECF9FB9779BFECF909162009860909336
:10181000620090916200977F909362008FE99FE051
:101820000197F1F700C000003111E3CF69960FB6C0
:10183000F894DEBF0FBECDBFDF91CF911F910F9106
:10184000FF90EF90DF90CF90BF90AF909F908F90E0
:101850007F906F905F904F900895912C9E012F5F25
:101860003F4F59018FCF90E3B2CFF094E094D094E2
:10187000C094C11CD11CE11CF11C52CF5F926F922D
:101880007F928F929F92AF92BF92CF92DF92EF9210
:10189000FF920F931F93CF93DF93CDB7DEB761977E
:1018A0000FB6F894DEBF0FBECDBF5C01962E542E4E
:1018B000622E8B2C881C8824881C782C9C0197FD18
:1018C0009FC0552009F490C08E010F5F1F4F780113
:1018D000CC24CA94C50CD12C8FEFC81AD80AC00EDC
:1018E000D11E6AE070E0C9010E941E10462F242F0D
:1018F000372F805DF70181937F01EC15FD0589F796
:10190000FF24F394F50CF801E50DF11D8EE28083C0
:1019100001C0F92E6AE070E0C9010E941E10462F36
:10192000242F372F91E09F0DF801EF0DF11D805D01
:1019300080832115310569F761105BC0B7FC65C074
:101940009920B1F0682D70E080E2292F30E0492D18
:1019500050E0461B570B2417350754F49F5FF801DE
:10196000E20FF31F8083292F30E024173507B4F3EB
:10197000772031F0F801E90FF11D8DE280839F5F40
:1019800021E09150F801E90FF11D80812FB9779B7B
:10199000FECF8FB9779BFECF8091620088608093E5
:1019A000620080916200877F80936200EFE9FFE030
:1019B0003197F1F700C000009111E3CF61960FB6A7
:1019C000F894DEBF0FBECDBFDF91CF911F910F9175
:1019D000FF90EF90DF90CF90BF90AF909F908F904F
:1019E0007F906F905F900895F12C8E010F5F1F4FD5
:1019F00091CF992009F4BCCF682D70E080E3A5CF8A
:101A000022273327281B390B5CCFF394F394F8017A
:101A1000E90FF11D8DE28083992059F02F2D30E0E0
:101A2000492D50E02417350724F49F2D712C80E2B6
:101A300095CF9F2DA5CFCF92DF92EF92FF920F937C
:101A40001F93CF93DF93CDB7DEB7A0970FB6F8946F
:101A5000DEBF0FBECDBF8C01F42EDC011C9276954B
:101A60006795729562956F7067277F70672791E021
:101A700020E030E0E12CE0E0A1E0B0E003C02F5F27
:101A80003F4F9F5FAB01022E02C0569547950A94C7
:101A9000E2F740FF13C0222309F4D3C0213009F438
:101AA000D3C02A3009F4D4C0A901425051096D01B4
:101AB00002C0CC0CDD1C4A95E2F7EC0D9B30F9F628
:101AC000DD24D394FD1409F442C04AE0BE016F5EE8
:101AD0007F4F8E2F90E00E944F124AE0BE016F5F51
:101AE0007F4F8E2D90E00E944F12BE016F5E7F4FA0
:101AF000C8010E943D12F80101900020E9F73197DA
:101B0000CF01801B910B2EE220830196BE016F5FF7
:101B10007F4F800F911F0E944812F11084C0F8017E
:101B200001900020E9F7319783E490E0918380836E
:101B3000A0960FB6F894DEBF0FBECDBFDF91CF9158
:101B40001F910F91FF90EF90DF90CF90089529E0C3
:101B5000E29EC001112465E070E00E941E10462F35
:101B6000643608F06AC0F0E082E1E89F7001112459
:101B7000A0ECEA1AAEEFFA0A9701ADECBCEC0E94B9
:101B80005A109695879596958795969587959C0179
:101B9000220F331F880F991F880F991F880F991FD5
:101BA000820F931FE81AF90AF42EBAE0EB9EF00CAC
:101BB000112473E6C72ECF1420F4FF5F8CE9D82ED2
:101BC000FD0C29E0E29FC001112465E070E00E9455
:101BD0001E1080E2860F8F0F4AE0BE016F5E7F4FBE
:101BE00090E00E944F124AE0BE016F5F7F4F8F2D41
:101BF00090E00E944F12BE016F5E7F4FC8010E94AD
:101C00003D12F80101900020E9F73197CF01801BC8
:101C1000910B2EE220830196BE016F5F7F4F800FF4
:101C2000911F0E944812F80101900020E9F73197B6
:101C300086E490E0918380837BCF4CE9460FF1E00E
:101C400093CFF9E1EF0E1BCFF2E3CF2EEC0C17CFC1
:101C50008DE290E0D8018D939C9332CF42E06FEDFE
:101C600071E080E90E94E00E8091DF019091E00137
:101C700098278927982708951F920F920FB60F92E1
:101C800011240BB60F922F933F938F939F93AF9393
:101C9000BF93EF93FF93E09171008E2F90E0FC01D2
:101CA0003897E135F105B0F0809171008093E10142
:101CB00084E080937400FF91EF91BF91AF919F9169
:101CC0008F913F912F910F900BBE0F900FBE0F90F1
:101CD0001F901895EA5BFF4F0C9451108091720190
:101CE000E091E201F091E301E80FF11D80917300B2
:101CF000808384E980937400DECF8091E401809337
:101D000073001092720185E880937400D4CF8091A3
:101D100072019091E501891760F7E091E201F0917D
:101D2000E30191E0980F90937201E80FF11D80811B
:101D30008093730085E880937400BDCF85EA80931B
:101D40007400B9CF209172018091E50130E090E0FC
:101D5000019728173907DCF485EC80937400ABCF2A
:101D6000E091E201F091E3018091720121E0280FFE
:101D700020937201E80FF11D8091730080838091A0
:101D8000E50130E090E00197281739072CF385E84A
:101D90008093740090CF8091740081700895909129
:101DA000740090FDFCCF8E7F8093E4017093E3017B
:101DB0006093E2014093E50185EA80937400089501
:101DC0009091740090FDFCCF81608093E40170934A
:101DD000E3016093E2014093E50185EA809374009A
:101DE00008958FEF80937300109271008CE08093C0
:101DF000700008955D9BFECF8CB95D9BFECF08956A
:101E000090919B0095FFFCCF80939C0080919B005C
:101E100085FFFCCF0895FC019081992349F031960C
:101E20005D9BFECF9CB95D9BFECF91919111F8CF48
:101E30000895FC012081222371F0319690919B003E
:101E400095FFFCCF20939C0090919B0095FFFCCFC9
:101E500021912111F3CF08959C01FC014491442369
:101E600069F00196F90124915D9BFECF2CB95D9B31
:101E7000FECF9C01FC0144914111F3CF08958AB13A
:101E800088698AB9E5E9F0E08081866080831092F4
:101E9000900087E689B90895EAE9F0E080818861D9
:101EA0008083EDE9F0E08081866080831092980065
:101EB00087E680939900089580E89EE302C0019729
:101EC00021F05F9BFCCF8CB1089580E0089580E8FD
:101ED0009EE302C0019739F020919B0027FFFACFC3
:101EE00080919C00089580E0089580B7886080BF4D
:101EF00087B7816087BF83B7816083BF85B58C67F3
:101F000085BD87B7806487BF83B58F6783BD8EB576
:101F100089608EBD87B7806187BF8FE39FE19BBDDE
:101F20008ABD80918B00816880938B0080918A00AC
:101F3000896080938A0080917D00846080937D0019
:101F40008FE790E0909387008093860080916100F6
:101F50008F7780936100809162008F778093620019
:101F600087B1876487B986B1876886B98091610037
:101F700088608093610080916200877F8093620017
:101F80000E943F0F87B3806C87BB87B3876087BB96
:101F900080E58DB981E08EB90E94A40A0E94F10EFD
:101FA00078940E94F90980E784BB88EC82B980ECC0
:101FB00083B984E081BB8CEF8093AA01C0E0D1E0BB
:101FC0001FEF00E480E1D82E90E2E92E20E3F22E0C
:101FD0008FE39FE10197F1F700C000000E946402C7
:101FE00080914C018FB9779BFECF88B38D2788BB3A
:101FF00088B38D2788BB1ABBC53088F4EC2FF0E07E
:10200000E855FE4F80818BBBCC2361F0C13069F075
:10201000C23071F0C33079F015BAC5E0D9CF8091E4
:10202000A8018BBB05BBC1E0D3CFF5BAC2E0D0CFCE
:10203000E5BAC3E0CDCFD5BAC4E0CACF97FB072E2F
:1020400016F4009407D077FD09D00E94691007FCB0
:1020500005D03EF4909581959F4F089570956195B8
:102060007F4F0895052E97FB1EF400940E9449109F
:1020700057FD07D00E947D1007FC03D04EF40C944E
:10208000491050954095309521953F4F4F4F5F4FE8
:10209000089590958095709561957F4F8F4F9F4FD4
:1020A0000895EE0FFF1F0024001C0BBE0790F69151
:1020B000E02D0994A29FB001B39FC001A39F700DB2
:1020C000811D1124911DB29F700D811D1124911D40
:1020D0000895AA1BBB1B51E107C0AA1FBB1FA6176F
:1020E000B70710F0A61BB70B881F991F5A95A9F7C1
:1020F00080959095BC01CD010895A1E21A2EAA1BEE
:10210000BB1BFD010DC0AA1FBB1FEE1FFF1FA217A7
:10211000B307E407F50720F0A21BB30BE40BF50BA4
:10212000661F771F881F991F1A9469F7609570952D
:10213000809590959B01AC01BD01CF010895505849
:10214000BB27AA270E94B7100C9496110E948811F1
:1021500038F00E948F1120F039F49F3F19F426F4D3
:102160000C9485110EF4E095E7FB0C947F11E92F98
:102170000E94A71158F3BA176207730784079507DF
:1021800020F079F4A6F50C94C9110EF4E0950B2E0D
:10219000BA2FA02D0B01B90190010C01CA01A001B9
:1021A0001124FF27591B99F0593F50F4503E68F114
:1021B0001A16F040A22F232F342F4427585FF3CF55
:1021C000469537952795A795F0405395C9F77EF426
:1021D0001F16BA0B620B730B840BBAF09150A1F06F
:1021E000FF0FBB1F661F771F881FC2F70EC0BA0FF5
:1021F000621F731F841F48F4879577956795B7957D
:10220000F7959E3F08F0B0CF9395880F08F0992777
:10221000EE0F9795879508950E9413116894B11158
:102220000C94CA1108950E94AF1188F09F5798F03E
:10223000B92F9927B751B0F0E1F0660F771F881FCB
:10224000991F1AF0BA95C9F714C0B13091F00E94E5
:10225000C911B1E008950C94C911672F782F882710
:10226000B85F39F0B93FCCF3869577956795B3950C
:10227000D9F73EF490958095709561957F4F8F4F7B
:102280009F4F0895E89409C097FB3EF49095809580
:10229000709561957F4F8F4F9F4F9923A9F0F92F2C
:1022A00096E9BB279395F695879577956795B795AA
:1022B000F111F8CFFAF4BB0F11F460FF1BC06F5F90
:1022C0007F4F8F4F9F4F16C0882311F096E911C0A2
:1022D000772321F09EE8872F762F05C0662371F0C3
:1022E00096E8862F70E060E02AF09A95660F771FD7
:1022F000881FDAF7880F9695879597F9089597F9CB
:102300009F6780E870E060E008959FEF80EC08959B
:1023100000240A94161617061806090608950024C4
:102320000A9412161306140605060895092E03943E
:10233000000C11F4882352F0BB0F40F4BF2B11F4B2
:1023400060FF04C06F5F7F4F8F4F9F4F089557FD11
:102350009058440F551F59F05F3F71F04795880F13
:1023600097FB991F61F09F3F79F0879508951216AA
:1023700013061406551FF2CF4695F1DF08C0161656
:1023800017061806991FF1CF869571056105089407
:102390000895E894BB2766277727CB0197F908951E
:1023A0000E94E3110C9496110E94881138F00E944B
:1023B0008F1120F0952311F00C947F110C9485114E
:1023C00011240C94CA110E94A71170F3959FC1F3B8
:1023D000950F50E0551F629FF001729FBB27F00DD3
:1023E000B11D639FAA27F00DB11DAA1F649F662728
:1023F000B00DA11D661F829F2227B00DA11D621F77
:10240000739FB00DA11D621F839FA00D611D221F30
:10241000749F3327A00D611D231F849F600D211D14
:10242000822F762F6A2F11249F5750409AF0F1F097
:1024300088234AF0EE0FFF1FBB1F661F771F881F00
:1024400091505040A9F79E3F510580F00C947F11A8
:102450000C94CA115F3FE4F3983ED4F386957795C8
:102460006795B795F795E7959F5FC1F7FE2B880FA6
:10247000911D9695879597F90895FB01DC010D90C4
:102480000020E9F7119701900D920020E1F70895DF
:10249000FB01DC0101900D920020E1F70895BB27BC
:1024A0004A3031F4992322F4BDE2909581959F4FF3
:1024B0000C945B12BB27FB015527AA27880F991F95
:1024C000AA1FA41710F0A41B83955051B9F7A05D63
:1024D000AA3308F0A95DA193009779F7B111B193E0
:1024E0001192CB010C947412DC01FC01672F7191E5
:1024F0007723E1F7329704C07C916D9370836291EA
:0C250000AE17BF07C8F30895F894FFCF92
:10250C0020202020202020202020202020202020BF
:10251C0020202020202020202020202020202020AF
:10252C000A00414C41524D00000000000000000028
:08253C000000010101010C0087
:00000001FF
