:100000000C9497000C94B6000C94B6000C94B600B7
:100010000C94B6000C94B6000C94B6000C94B60088
:100020000C94B8000C94B6000C940D090C94B60016
:100030000C9464010C94B6000C94B6000C94B600B9
:100040000C9492050C94B6000C9468050C94B600C0
:100050000C94B6000C94B6000C94B6000C94B60048
:100060000C94B6000C94B6000C94B6000C94B60038
:100070000C94B6000C946C090C94B6000C94B60069
:100080000C94B6000C944B100C94B6008C106310BA
:100090006310631063106310631063108C1063109F
:1000A0006310631063106310631063109610631085
:1000B00063106310631063106310631063106310A8
:1000C0006310631063106310631063109610631065
:1000D0006310631063106310631063106310631088
:1000E000631063106310631063106310AD1063102E
:1000F000631063106310631063106310B11063101A
:100100006310631063106310631063106310631057
:10011000631063106310631063106310BF106310EB
:100120006310631063106310631063107D1011245B
:100130001FBECFEFD0E1DEBFCDBF12E0A0E0B1E047
:10014000EEEAFEE200E00BBF02C007900D92A03481
:10015000B107D9F723E0A0E4B2E001C01D92A83CAA
:10016000B207E1F70E94AB130C9455170C940000F2
:100170001F920F920FB60F9211248F9381E08093FC
:10018000B8038F910F900FBE0F901F90189518987D
:10019000179A1A9A8FE193E00197F1F700C00000D7
:1001A0001A9890EA9A95F1F717980895482FE82F32
:1001B000F0E099B3EE0FFF1FEE58FD4F2081318123
:1001C000220F331F306E892F90E002C095958795DE
:1001D0004A95E2F781709927282B392B31832083A8
:1001E00081E02115304F09F080E0089580915D0293
:1001F00083FD0EC080E280930B0180930C018093FD
:100200000D0180930E0180930F0110924E0208950C
:1002100081E480930B019CE490930C0180930D0189
:1002200082E580930E018DE480930F0110924E02BF
:10023000089580B7886080BF87B7816087BF83B724
:10024000816083BF089585B58C6785BD87B780645D
:1002500087BF83B58F6783BD0895EBE8F0E08081A9
:1002600081688083EAE8F0E0808189608083EDE73F
:10027000F0E08081846080838FE790E09093870036
:100280008093860008958EB589608EBD87B78061A2
:1002900087BF8FE39FE19BBD8ABD08959091710256
:1002A00081E08927809371020E943D10909397020C
:1002B000809396026091960270919702409171022C
:1002C00088EA92E00C942A0F1F920F920FB60F92B9
:1002D00011240BB60F922F933F934F935F936F931D
:1002E0007F938F939F93AF93BF93CF93DF93EF93BE
:1002F000FF9380916F02909170020196909370022B
:1003000080936F02C0916D02D0916E022196D093BE
:100310006E02C0936D0280914E02813009F4B7C025
:1003200080915D0283FF52C09091630280915702D9
:10033000981709F474C080915D0284FF05C0809114
:100340004F02813009F48BC080915002813009F056
:1003500051C010924F0290914F0280915102981714
:1003600019F081E08093000180914F028093510247
:10037000C03DD74009F03EC080912B0190912C01E7
:10038000019790932C0180932B0110926E02109292
:100390006D0280912B0190912C01892B59F581E000
:1003A00080934F0220914F02909151022913809324
:1003B000000180914F02809351028AE090E0909377
:1003C0002C0180932B011092500214C080915D0289
:1003D0008F7E80935D0210924F0290914F02809128
:1003E0005102981719F081E08093000180914F022B
:1003F00080935102FF91EF91DF91CF91BF91AF9127
:100400009F918F917F916F915F914F913F912F912C
:100410000F900BBE0F900FBE0F901F9018959091EC
:10042000640280913D01981386CF80915002811122
:1004300082CF81E080934F0220914F029091510230
:1004400029138093000180914F0280935102809183
:100450005D0284FFCFCF80914F02813059F681E059
:100460008093500280915D028F7E80935D02109296
:100470006E0210926D0210924F0290914F02809185
:100480005102981709F4B2CFC0E0D0E06ACF0E94C1
:10049000F60046CF809165028B3331F08091650282
:1004A0008F5F8093650208951092650280916402C7
:1004B0008B3331F0809164028F5F809364020895E2
:1004C0001092640280916302873179F08091630217
:1004D0008F5F80936302809141018D3049F080915C
:1004E00041018F5F80934101089510926302F3CF21
:1004F00081E08093410108958823A1F08130A1F02B
:100500008230A1F08330A1F08430A1F08530A1F0D9
:100510008630A1F08730A1F08830A1F08930A1F0B9
:100520008FEF089580EC089589EF089584EA089587
:1005300080EB089589E9089582E9089582E8089595
:1005400088EF089580E8089580E90895E1E6F0E0F5
:1005500080818F778083E2E6F0E080818F778083EF
:1005600087B1876487B986B1876886B90895369A56
:10057000349BFECF349A84B195B10895EF92FF92E7
:100580000F931F93CF93DF9380915D0281FD86C00F
:1005900080915D0286FD82C02091640287E6280278
:1005A000912D11249595959527FD93953AE0939F6C
:1005B0002019112420936102909164029802212D48
:1005C00011242595259597FD23952802912D112419
:1005D0009595959527FD93953AE0939F20191124C1
:1005E0002093600290916202992309F4A8C120919E
:1005F00041012802912D11249595959527FD9395FC
:100600003AE0939F2019112420935F022091410129
:100610002802912D11249595959527FD9395980283
:10062000812D11248595859597FD83952AE0829FDC
:100630009019112490935E02809163028C300CF427
:10064000A9C18091BB028B7F8093BB0280915E0227
:100650000E947C028093B90280915F020E947C021A
:100660008093BA02809160020E947C028093BC0257
:10067000809161020E947C028093BD0280915D02A4
:1006800083FD51C18091BD0280688093BD02DF91DE
:10069000CF911F910F91FF90EF90089580915D028F
:1006A00080FD7BC080915D0281FF77C080915D02FB
:1006B00086FD73C020913D0187E62802912D11240B
:1006C0009595959527FD93953AE0939F20191124D0
:1006D0002093550290913D019802212D11242595DA
:1006E000259597FD23952802912D11249595959593
:1006F00027FD93953AE0939F2019112420935402EB
:1007000090916202992309F44BC12091560228026C
:10071000912D11249595959527FD93953AE0939FFA
:100720002019112420935302209156022802912D62
:1007300011249595959527FD93959802812D112467
:100740008595859597FD83952AE0829F90191124C0
:1007500090935202809157028C300CF44CC18091DE
:10076000BB028B7F8093BB02809152020E947C026D
:100770008093B902809153020E947C028093BA0256
:10078000809154020E947C028093BC0280915502A9
:100790000E947C028093BD0271CF80915D0280FD3A
:1007A0006DCF80915D0281FD69CF80915D0286FFF2
:1007B00065CF2091090130910A01ADECBCEC0E949B
:1007C0002B15EC01D695C795D695C795D695C795A7
:1007D0009E010E942B1596958795969587959695DF
:1007E00087959C01220F331F880F991F880F991F2F
:1007F000880F991F820F931FC81BD90BC093440207
:100800002091090130910A01369527953695279553
:10081000ABE7B4E10E942B158C0116950795980162
:10082000ADECBCEC0E942B15969587959695879517
:10083000969587959C01220F331F880F991F880F6B
:10084000991F880F991F820F931F081B190B009384
:1008500047022091090130910A0136952795369576
:10086000279536952795A5ECB0E20E942B157C01C3
:10087000F294E294DFE0ED22EF24FD22EF249701D1
:10088000ADECBCEC0E942B159695879596958795B7
:10089000969587959C01220F331F880F991F880F0B
:1008A000991F880F991F820F931FE81AF90AE09287
:1008B00046022091090130910A01329522952F704C
:1008C00023273F702327A7E4B3E00E942B159695BA
:1008D00087959695879596958795D82F809345020D
:1008E0000E947C028093B9028E2D0E947C0280932C
:1008F000BA028091BB0284608093BB02802F0E9469
:100900007C028093BC028091BC028F778093BC02F2
:100910008C2F0E947C028093BD02D111AFCE8FEF4D
:100920008093B902ABCE8091BD028F778093BD02D8
:10093000DF91CF911F910F91FF90EF90089520913B
:1009400063022802912D11249595959527FD939585
:100950003AE0939F2019112420935F0220916302B3
:100960002802912D11249595959527FD9395980230
:10097000812D11248595859597FD83952AE0829F89
:100980009019112490935E028091BB028460809341
:10099000BB025CCE8091BB0284608093BB0256CECA
:1009A000209157022802912D11249595959527FDA8
:1009B00093953AE0939F201911242093530220919C
:1009C00057022802912D11249595959527FD939511
:1009D0009802812D11248595859597FD83952AE0B0
:1009E000829F90191124909352028091BB028460DF
:1009F0008093BB02B9CE8091BB0284608093BB021E
:100A0000B3CE209148022130A9F183E70E94091159
:100A100080E00E9409110E944E01E8EAF2E0019094
:100A20000020E9F73197AF01485A524040934902FC
:100A300010924A02552741155105B1F021E080E09E
:100A400090E001C0232FFC01E855FD4F3081FC01EF
:100A5000E55FFE4F308B822F90E031E0320F84173C
:100A6000950784F320934A02FA01E55FFE4F80E286
:100A7000808B089510924802E8E9F2E0019000208E
:100A8000E9F73197AF01485952404093490210921B
:100A90004A02552741155105A9F080E090E001C0B8
:100AA000232FFC01E55FFE4FDC01A856BD4F8C9162
:100AB000808F822F90E031E0320F8417950784F306
:100AC00020934A02FA01E55FFE4F80E2808F9DCFBE
:100AD0001F920F920FB60F9211240BB60F928F93A5
:100AE0009F93EF93FF938CB18093B802E0916C02D7
:100AF00091E09E0F90936C02F0E0E856FD4F8083EA
:100B0000811105C081E08093480210926C02FF9130
:100B1000EF919F918F910F900BBE0F900FBE0F9092
:100B20001F9018951F920F920FB60F9211240BB6BB
:100B30000F922F933F934F935F936F937F938F9376
:100B40009F93AF93BF93EF93FF9380916B028F5F5F
:100B500080936B028A3F99F18BE091E00E94510AE9
:100B600080916B028F7799F0FF91EF91BF91AF91D8
:100B70009F918F917F916F915F914F913F912F91B5
:100B80000F900BBE0F900FBE0F901F9018950E94F4
:100B90004A0280915D0286FF08C080915D0280FD5F
:100BA00004C080915D0281FF0DC09091BB0283E083
:100BB00089278093BB0281E080934B02D5CF0E94AE
:100BC0000105CACF8091BB0283608093BB02F3CF43
:100BD00080915D028823A1F080915D0280FD15C0A7
:100BE00080915D0280FD04C080915D0281FD11C095
:100BF00080915D0280FF08C080915D0281FF04C08A
:100C00001092400110923F01089580915D0281FD94
:100C1000E7CF81E08093400180933F010895CF9317
:100C20001ABA8FEF8BBB80E785BB10925C02809174
:100C30005C02873008F058C0C0E4B0E2A8E051E0A0
:100C400074E062E00AC080915C028F5F80935C0276
:100C500080915C02873008F047C040915C02E42F2D
:100C6000F0E099B3EE0FFF1FEE58FD4F2081318168
:100C7000220F331F306E892F90E002C09595879523
:100C80004A95E2F781709927822B932B9183808379
:100C90008115904FC1F680915C02811106C0809150
:100CA0005D02852780935D02CECF80915C0281300A
:100CB00009F180915C02823019F180915C028330ED
:100CC00029F180915C02843049F180915C02853089
:100CD00059F180915C02863009F0B5CF80915D02B8
:100CE0008C2780935D02AFCF0E94E80580E685BB2C
:100CF000CF91089580915D02862780935D02A3CFF6
:100D000080915D02872780935D029DCF80915D0277
:100D10008A2780935D0250934E0295CF80915D02A9
:100D2000806180935D028FCF80915D028B278093DD
:100D30005D028091420281608093420284CF1FB89D
:100D4000779BFECF8FB1089593B180E4982793B934
:100D500093B1892783B993B180E2892783B91FB8FA
:100D6000779BFECF8FB18093580293B180E28927A1
:100D700083B9809158028093680287E0809359027A
:100D8000809159028230D8F041E050E080915902C0
:100D900020916802BA0102C0660F771F8A95E2F7B8
:100DA000CB018095909582238093680280915902AF
:100DB00081508093590280915902823038F7809196
:100DC0005802869586958093660287E08093590243
:100DD000809159028230D8F041E050E08091590270
:100DE00020916602BA0102C0660F771F8A95E2F76A
:100DF000CB01809590958223809366028091590261
:100E000081508093590280915902823038F7809145
:100E10003E01813009F47CC080916802813009F480
:100E200086C0813008F48EC0823009F468C08330F7
:100E300009F0A0C080916902813009F4BEC08091A0
:100E40006902823029F580915D0280FF8EC1809118
:100E50005D0281FD8AC190913F0180916302891BEF
:100E60008093630290913F0180914101891B80939F
:100E700041018091630287FDCCC180914101181628
:100E80001CF08CE08093410180916802809369029C
:100E900080916602813009F464C0813008F482C018
:100EA000823009F475C0833009F06DC0809167020B
:100EB000813009F4ABC080916702823009F059C0DB
:100EC00080915D0280FDBDC080915D0280FD11C1F9
:100ED00080915D0281FF0DC19091400180913D01A3
:100EE000891B80933D0180913D0187FF03C08BE307
:100EF00080933D01809166028093670208958091FE
:100F00006902833009F2809169028111C1CFBCCF9F
:100F100080916802809369028091660280936702E3
:100F200010923E0180916802813009F07ACF809161
:100F30006902882309F4A8CF80916902833009F0FF
:100F4000A7CFA2CF80916902823009F49DCF809112
:100F50006902813009F498CF80916602813009F0EE
:100F60009CCF80916702882329F2809167028330A9
:100F700009F2089580916302809363028091410198
:100F80008093410185CF809164028093640208952B
:100F900080916702833009F4ADCF8091670281119F
:100FA000E8CFA8CF80916702823009F4A3CF809167
:100FB0006702813009F49ECF089580915D0280FD23
:100FC00066C080915D0280FDA6C080915D0281FFB8
:100FD000A2C080913F0190915702890F80935702E0
:100FE00080913F0190915602890F80935602809123
:100FF0005702883111F410925702809156028D30B9
:1010000009F042CF81E0809356023ECF80915D028D
:1010100080FD2AC080915D0280FD59C080915D02F3
:1010200081FF55C08091400190913D01890F8093CF
:101030003D0180913D018C3309F05CCF10923D0160
:1010400059CF80915D0281FD3FCF90914001809109
:101050006402891B809364028091640287FF4ACFF7
:101060008BE38093640246CF80915D0281FDD2CFF5
:101070008091400190916402890F80936402809175
:1010800064028C3309F036CF1092640233CF809122
:101090005D0281FD96CF80913F0190916302890F9F
:1010A0008093630280913F0190914101890F809369
:1010B000410180916302883109F4A4C0809141010B
:1010C0008D3009F0E1CE81E080934101DDCE809149
:1010D0005D0280FD0FCF80915D0281FD0BCF80917D
:1010E00086009091870006969093870080938600F3
:1010F00001CF80915D0280FDFDCE80915D0281FD7A
:10110000F9CE809186009091870006979093870092
:1011100080938600EFCE80915D0280FDB5CE8091F8
:101120005D0281FDB1CE80915D02829586958695A6
:101130008370813009F0A8CE4091090150910A01D5
:1011400020910301309104014217530709F49CCE0A
:101150002091090130910A012C5E3F4F30930A0122
:1011600020930901809343028FCE80915D0280FD20
:101170001FC080915D0281FF1BC090913F01809153
:101180005702891B8093570290913F01809156022C
:10119000891B809356028091570287FD36C080914B
:1011A000560218160CF470CE8CE0809356026CCE6A
:1011B00080915D0280FD68CE80915D0281FD64CEEC
:1011C00080915D028295869586958370813009F0C5
:1011D0005BCE4091090150910A01209101013091AB
:1011E00002014217530709F44FCE209109013091B3
:1011F0000A012451310930930A0120930901809397
:10120000430242CE1092630259CF87E18093570286
:10121000C6CF87E18093630230CE1F920F920FB644
:101220000F9211240BB60F922F933F934F935F931E
:101230006F937F938F939F93AF93BF93EF93FF939E
:1012400089B380935A0283B380935B020E940F0696
:1012500080915D0282FB882780F9809362020E9460
:10126000A4068FEF8ABB80915A028BBB80915B02F0
:1012700085BBFF91EF91BF91AF919F918F917F912E
:101280006F915F914F913F912F910F900BBE0F90F7
:101290000FBE0F901F90189587B3876087BB80E5BE
:1012A0008DB981E08EB90895809141028FB9779B05
:1012B000FECF98B381E0982798BB98B3892788BB65
:1012C0000895E1E6F0E0808188608083E2E6F0E066
:1012D0008081877F808308951F920F920FB60F92AF
:1012E00011240BB60F922F933F934F935F936F93FD
:1012F0007F938F939F93AF93BF93EF93FF938091CF
:101300006A028F5F80936A0299E3899F912D11246D
:1013100092959F7028E4929F80191124811135C005
:10132000369A349BFECF349A84B195B1909395024E
:1013300080939402609194027091950280E090E015
:101340000E94131627EE3BEF49EE5EE30E94A116C2
:1013500020E030E048EC52E40E9470150E94DD1558
:1013600070934D0260934C0280914C0290914D021B
:101370000A97F4F48AE090E090934D0280934C0237
:1013800080914C0290914D0283BDFF91EF91BF91EE
:10139000AF919F918F917F916F915F914F913F910D
:1013A0002F910F900BBE0F900FBE0F901F901895AE
:1013B00080914C0290914D028F3F910509F304F307
:1013C0008FEF90E090934D0280934C02D9CF8091A3
:1013D0004F02813049F0809140028130D9F08091F4
:1013E0000001813039F1089580914002813031F15E
:1013F000809100018130B9F71092000180910701BE
:101400009091080190930A01809309010E9468124B
:101410000C94A41180910001813029F710920001F1
:10142000809105019091060190930A018093090132
:101430000C94A411109200010C94C9118091000128
:10144000813089F6109200018091090190910A0182
:101450009093060180930501809107019091080106
:1014600090930A01809309010C94A41191E08111D9
:1014700001C090E09FB9779BFECF6FB9779BFECFFD
:101480008091620088608093620080916200877F13
:10149000809362008FE99FE00197F1F700C00000A0
:1014A000089521E02FB9779BFECF20918202FC01A5
:1014B000E20FF11D80818FB9779BFECF8091620092
:1014C00088608093620080916200877F80936200D1
:1014D000809182028F5F80938202803109F1803295
:1014E00009F0089595ED9A95F1F700001FB8779BE4
:1014F000FECF82E08FB9779BFECF8091620088603B
:101500008093620080916200877F809362008FE900
:101510009FE00197F1F700C0000010928202089549
:1015200085ED8A95F1F700001FB8779BFECF80EC20
:101530008FB9779BFECF80916200886080936200B4
:1015400080916200877F809362008FE99FE001971E
:10155000F1F700C0000080918202C1CF660F660FD4
:10156000660F605C1FB8779BFECF6FB9779BFECF8D
:101570002091620028602093620020916200277F02
:1015800020936200AFE9BFE01197F1F700C00000BF
:10159000FC019C01285F3F4F91E081919FB9779BAF
:1015A000FECF8FB9779BFECF8091620088608093D9
:1015B000620080916200877F80936200AFE9BFE0A4
:1015C0001197F1F700C00000E217F30731F7089513
:1015D00090E4899F600D1124605C1FB8779BFECF5B
:1015E0006FB9779BFECF8091620088608093620024
:1015F00080916200877F809362008FE99FE001976E
:10160000F1F700C000000895811119C081E08FB981
:10161000779BFECF80E38FB9779BFECF80916200EE
:1016200088608093620080916200877F809362006F
:101630008FE99FE00197F1F700C00000089584361C
:10164000B0F48A3090F591E09FB9779BFECF9DEC86
:10165000899F912D1124969596959695FAE09F9FD6
:1016600080191124805D8FB9779BFECFD7CF99E287
:10167000899F912D112492959F70905D21E02FB943
:10168000779BFECF9FB9779BFECF909162009860C9
:101690009093620090916200977F90936200EFE9CF
:1016A000FFE03197F1F700C0000099E2899F912D8A
:1016B000112492959F70282FF4E69F9F20191124E2
:1016C000922F2DEC929F912D11249695969596959B
:1016D000905D21E02FB9779BFECF9FB9779BFECF1E
:1016E0009091620098609093620090916200977F61
:1016F00090936200EFE9FFE03197F1F700C000003E
:10170000A2CF87FF0C94040B91E09FB9779BFECF8B
:101710009DE29FB9779BFECF909162009860909375
:10172000620090916200977F90936200EFE9FFE082
:101730003197F1F700C0000081950C94040B1FB89D
:10174000779BFECF8EE08FB9779BFECF80916200B2
:1017500088608093620080916200877F809362003E
:101760008FE99FE00197F1F700C0000008951FB8CE
:10177000779BFECF8CE08FB9779BFECF8091620084
:1017800088608093620080916200877F809362000E
:101790008FE99FE00197F1F700C0000008951FB89E
:1017A000779BFECF8EE18FB9779BFECF8091620051
:1017B00088608093620080916200877F80936200DE
:1017C0008FE99FE00197F1F700C0000008951FB86E
:1017D000779BFECF88E18FB9779BFECF8091620027
:1017E00088608093620080916200877F80936200AE
:1017F0008FE99FE00197F1F700C000000895E2E64D
:10180000F0E08081886080838081877F8083089575
:101810001FB8779BFECF81E08FB9779BFECF809179
:10182000620088608093620080916200877F80936D
:1018300062008FE99FE00197F1F700C00000089572
:101840001FB8779BFECF82E08FB9779BFECF809148
:10185000620088608093620080916200877F80933D
:1018600062008FE99FE00197F1F700C00000089542
:101870001FB8779BFECF80EC8FB9779BFECF80910E
:10188000620088608093620080916200877F80930D
:1018900062008FE99FE00197F1F700C00000089512
:1018A00090E131E020E23FB9779BFECF2FB9779BE3
:1018B000FECF809162008860809362008091620018
:1018C000877F80936200EFE9FFE03197F1F700C076
:1018D0000000915041F7089591E09FB9779BFECFAA
:1018E0008FB9779BFECF8091620088608093620001
:1018F00080916200877F809362008FE99FE001976B
:10190000F1F700C000000895FC0140E050E060E005
:1019100071E0DF01A40FB51F8C917FB9779BFECFDB
:101920008FB9779BFECF9091620098609093620090
:1019300090916200977F909362008FE99FE00197FA
:10194000F1F700C000006F5F462F50E0DF010D90FF
:101950000020E9F79D012E1B3F0B2250310924176F
:101960003507B8F608958FEF99EF0197F1F700C0AA
:10197000000088E0809361001FB8779BFECF80E372
:101980008FB9779BFECF8091620088608093620060
:1019900080916200877F809362008FE99FE00197CA
:1019A000F1F700C000001FB8779BFECF80E38FB92E
:1019B000779BFECF80916200886080936200809167
:1019C0006200877F809362008FE99FE00197F1F7C3
:1019D00000C000001FB8779BFECF80E38FB9779BD4
:1019E000FECF8091620088608093620080916200E7
:1019F000877F809362008FE99FE00197F1F700C035
:101A000000001FB8779BFECF88E38FB9779BFECF8E
:101A10008091620088608093620080916200877F7D
:101A2000809362008FE99FE00197F1F700C000000A
:101A30001FB8779BFECF88E08FB9779BFECF809150
:101A4000620088608093620080916200877F80934B
:101A500062008FE99FE00197F1F700C000001FB816
:101A6000779BFECF81E08FB9779BFECF809162009C
:101A700088608093620080916200877F809362001B
:101A80008FE99FE00197F1F700C000001FB8779B36
:101A9000FECF86E08FB9779BFECF80916200886091
:101AA0008093620080916200877F809362008FE95B
:101AB0009FE00197F1F700C000001FB8779BFECFB1
:101AC0008CE08FB9779BFECF809162008860809315
:101AD000620080916200877F809362008FE99FE0BF
:101AE0000197F1F700C0000008954F925F926F9246
:101AF0007F928F929F92AF92BF92CF92DF92EF929E
:101B0000FF920F931F93CF93DF93CDB7DEB7699703
:101B10000FB6F894DEBF0FBECDBF142F422E5E2C41
:101B2000002379F06B017C01CC24F7FCC394DD2405
:101B3000EE24FF240C2D6B017C0197FDA5C0C7018D
:101B4000B601442009F498C09E012F5F3F4F590110
:101B5000490166246A94640C712C3FEF631A730A7E
:101B60006A0C7B1C2AE030E040E050E00E94031544
:101B7000E62F2A8B3B8B4C8B5D8B6A897B898C890A
:101B80009D8920E32E0FF40121934F016E167F06ED
:101B900049F799249394940CF501E40DF11D2EE27C
:101BA00020832AE030E040E050E00E940315E62F59
:101BB0002A8B3B8B4C8B5D8B6E8B7F8B888F998FA9
:101BC0006A897B898C899D8931E0390DD501A90D00
:101BD000B11DE05DEC93932E6115710581059105B2
:101BE00001F7112361F051104DC090E2311738F424
:101BF000F501E30FF11D90833F5F1313F9CF00232D
:101C000031F0F501E30FF11D9DE290833F5F21E08C
:101C10003150F501E30FF11D90812FB9779BFECF75
:101C20009FB9779BFECF909162009860909362007D
:101C300090916200977F909362008FE99FE00197F7
:101C4000F1F700C000003111E3CF69960FB6F894A8
:101C5000DEBF0FBECDBFDF91CF911F910F91FF90DF
:101C6000EF90DF90CF90BF90AF909F908F907F903C
:101C70006F905F904F900895912C9E012F5F3F4F82
:101C800059018FCF90E3B2CFF094E094D094C094F8
:101C9000C11CD11CE11CF11C52CF5F926F927F924C
:101CA0008F929F92AF92BF92CF92DF92EF92FF926C
:101CB0000F931F93CF93DF93CDB7DEB761970FB626
:101CC000F894DEBF0FBECDBF5C01962E542E622E5F
:101CD0008B2C881C8824881C782C9C0197FD9FC025
:101CE000552009F490C08E010F5F1F4F7801CC245E
:101CF000CA94C50CD12C8FEFC81AD80AC00ED11EB9
:101D00006AE070E0C9010E94EF14462F242F372F9C
:101D1000805DF70181937F01EC15FD0589F7FF24B4
:101D2000F394F50CF801E50DF11D8EE2808301C0FE
:101D3000F92E6AE070E0C9010E94EF14462F242FAB
:101D4000372F91E09F0DF801EF0DF11D805D80832D
:101D50002115310569F761105BC0B7FC65C099209A
:101D6000B1F0682D70E080E2292F30E0492D50E07D
:101D7000461B570B2417350754F49F5FF801E20FF9
:101D8000F31F8083292F30E024173507B4F3772021
:101D900031F0F801E90FF11D8DE280839F5F21E0B2
:101DA0009150F801E90FF11D80812FB9779BFECF8B
:101DB0008FB9779BFECF809162008860809362002C
:101DC00080916200877F80936200EFE9FFE03197A6
:101DD000F1F700C000009111E3CF61960FB6F894BF
:101DE000DEBF0FBECDBFDF91CF911F910F91FF904E
:101DF000EF90DF90CF90BF90AF909F908F907F90AB
:101E00006F905F900895F12C8E010F5F1F4F91CF5F
:101E1000992009F4BCCF682D70E080E3A5CF22277C
:101E20003327281B390B5CCFF394F394F801E90FA7
:101E3000F11D8DE28083992059F02F2D30E0492D3E
:101E400050E02417350724F49F2D712C80E295CFA4
:101E50009F2DA5CFCF92DF92EF92FF920F931F930A
:101E6000CF93DF93CDB7DEB7A0970FB6F894DEBF60
:101E70000FBECDBF8C01F42EDC011C9276956795C8
:101E8000729562956F7067277F70672791E020E0F9
:101E900030E0E12CE0E0A1E0B0E003C02F5F3F4F75
:101EA0009F5FAB01022E02C0569547950A94E2F758
:101EB00040FF13C0222309F4D3C0213009F4D3C05A
:101EC0002A3009F4D4C0A901425051096D0102C061
:101ED000CC0CDD1C4A95E2F7EC0D9B30F9F6DD24C5
:101EE000D394FD1409F442C04AE0BE016F5E7F4FF7
:101EF0008E2F90E00E9420174AE0BE016F5F7F4F57
:101F00008E2D90E00E942017BE016F5E7F4FC801AA
:101F10000E940E17F80101900020E9F73197CF01D8
:101F2000801B910B2EE220830196BE016F5F7F4FD5
:101F3000800F911F0E941917F11084C0F8010190C1
:101F40000020E9F7319783E490E091838083A096A5
:101F50000FB6F894DEBF0FBECDBFDF91CF911F91BA
:101F60000F91FF90EF90DF90CF90089529E0E29ECF
:101F7000C001112465E070E00E94EF14462F643622
:101F800008F06AC0F0E082E1E89F70011124A0EC43
:101F9000EA1AAEEFFA0A9701ADECBCEC0E942B15E1
:101FA0009695879596958795969587959C01220F8E
:101FB000331F880F991F880F991F880F991F820F51
:101FC000931FE81AF90AF42EBAE0EB9EF00C1124E4
:101FD00073E6C72ECF1420F4FF5F8CE9D82EFD0CDA
:101FE00029E0E29FC001112465E070E00E94EF1437
:101FF00080E2860F8F0F4AE0BE016F5E7F4F90E058
:102000000E9420174AE0BE016F5F7F4F8F2D90E046
:102010000E942017BE016F5E7F4FC8010E940E17FD
:10202000F80101900020E9F73197CF01801B910B57
:102030002EE220830196BE016F5F7F4F800F911FBC
:102040000E941917F80101900020E9F7319786E402
:1020500090E0918380837BCF4CE9460FF1E093CFF2
:10206000F9E1EF0E1BCFF2E3CF2EEC0C17CF8DE290
:1020700090E0D8018D939C9332CF42E060EF72E004
:1020800080E90E94EF108091F0029091F102982770
:102090008927982708951F920F920FB60F92112447
:1020A0000BB60F922F933F938F939F93AF93BF9352
:1020B000EF93FF93E09171008E2F90E0FC01389731
:1020C000E135F105B0F0809171008093F20284E077
:1020D00080937400FF91EF91BF91AF919F918F9189
:1020E0003F912F910F900BBE0F900FBE0F901F903E
:1020F0001895EA5BFF4F0C94221580918302E091C2
:10210000F302F091F402E80FF11D809173008083D7
:1021100084E980937400DECF8091F5028093730090
:102120001092830285E880937400D4CF809183025B
:102130009091F602891760F7E091F302F091F402B2
:1021400091E0980F90938302E80FF11D80818093B6
:10215000730085E880937400BDCF85EA8093740096
:10216000B9CF209183028091F60230E090E0019790
:1021700028173907DCF485EC80937400ABCFE0912D
:10218000F302F091F4028091830221E0280F209362
:102190008302E80FF11D8091730080838091F60225
:1021A00030E090E00197281739072CF385E88093F9
:1021B000740090CF809174008170089590917400A4
:1021C00090FDFCCF8E7F8093F5027093F4026093B4
:1021D000F3024093F60285EA80937400089590918B
:1021E000740090FDFCCF81608093F5027093F4023F
:1021F0006093F3024093F60285EA80937400089599
:102200008FEF80937300109271008CE080937000C8
:1022100008955D9BFECF8CB95D9BFECF0895909194
:102220009B0095FFFCCF80939C0080919B0085FFD5
:10223000FCCF0895FC019081992349F031965D9B74
:10224000FECF9CB95D9BFECF91919111F8CF08957F
:10225000FC012081222371F0319690919B0095FF23
:10226000FCCF20939C0090919B0095FFFCCF219187
:102270002111F3CF08959C01FC014491442369F09E
:102280000196F90124915D9BFECF2CB95D9BFECF99
:102290009C01FC0144914111F3CF08958AB18869F2
:1022A0008AB9E5E9F0E08081866080831092900031
:1022B00087E689B90895EAE9F0E080818861808342
:1022C000EDE9F0E08081866080831092980087E6D7
:1022D00080939900089580E89EE302C0019721F061
:1022E0005F9BFCCF8CB1089580E0089580E89EE369
:1022F00002C0019739F020919B0027FFFACF80910F
:102300009C00089580E0089584E18093970341E064
:1023100067E973E082E20E94DE100E94DA10811108
:10232000FCCF8FEA94E00197F1F700C0000041E094
:1023300069EB73E082E20E94EF100E94DA108111D3
:10234000FCCF8091B903089580E2809397031092A7
:1023500098038091090190910A01909399038093C9
:102360009A0310929B031092B80345E067E973E06B
:1023700082E20E94DE102FEF81EE94E02150804037
:102380009040E1F700C000008091B8038823E1F39A
:10239000089581E18093970341E067E973E082E269
:1023A0000E94DE1087ED94E00197F1F700C0000075
:1023B000089583E28093970381E08093980342E03D
:1023C00067E973E082E20E94DE100E94DA10811158
:1023D000FCCF8FEA94E00197F1F700C0000048E0DD
:1023E00060EA73E082E20E94EF100E94DA1081112D
:1023F000FCCF089582E28093970381E08093980355
:1024000042E067E973E082E20E94DE100E94DA1087
:102410008111FCCF8FEA94E00197F1F700C0000032
:1024200048E060EA73E082E20E94EF100E94DA1056
:102430008111FCCF089582E48093970381E080931B
:10244000980342E067E973E082E20E94DE100E9496
:10245000DA108111FCCF8FEA94E00197F1F700C008
:10246000000048E060EA73E082E20C94EF1083E43D
:102470008093970381E08093980342E067E973E0DB
:1024800082E20E94DE100E94DA108111FCCF8FEAF6
:1024900094E00197F1F700C0000048E060EA73E0C3
:1024A00082E20C94EF10E7E9F3E022E1208311824D
:1024B000928383837483658346E0BF0182E20E9436
:1024C000DE108FE39CE90197F1F700C0000008954A
:1024D000E7E9F3E081E0808380E5818385E0828322
:1024E00043E0BF0182E20E94DE102FEF8BED95E00A
:1024F000215080409040E1F700C0000061E070E0B2
:1025000081E090E00C945312E7E9F3E081E08083EE
:1025100081E5818385E0828343E0BF0182E20E94FE
:10252000DE102FEF8BED95E0215080409040E1F7D9
:1025300000C0000061E070E081E090E00C94531274
:10254000E7E9F3E081E0808381E5818385E08283B0
:1025500043E0BF0182E20E94DE102FEF8BED95E099
:10256000215080409040E1F700C0000060E070E042
:1025700082E093E30E94531261E071E082E091E314
:102580000E94531261E070E081E090E00C945312DD
:1025900080E18093970341E067E973E082E20E9463
:1025A000DE100E94DA108111FCCF8FEA94E00197CF
:1025B000F1F700C0000048E068EA73E082E20E94A0
:1025C000EF100E94DA108111FCCF82E491E00E94AA
:1025D00028118BE791E00E94281184EB91E00E9482
:1025E00028118091A9034AE06FE173E090E00E9416
:1025F00020178FE193E00E94281181EC91E00E9466
:1026000028118091AA034AE06FE173E090E00E94F4
:1026100020178FE193E00E94281181EB91E00C9448
:102620002811FF920F931F93CF93DF93CDB7DEB79F
:10263000A8970FB6F894DEBF0FBECDBF8FEC91E028
:102640000E9428118FED91E00E94281100EA13E00A
:10265000F801808140E16FE173E090E00E94201773
:102660008FE193E00E94281181EB91E00E942811F4
:102670008FEE91E00E942811F80181814AE06FE11C
:1026800073E090E00E9420178FE193E00E942811F0
:1026900081EB91E00E942811F801F3808FEF91E027
:1026A0000E9428114AE06FE173E08F2D90E00E94B4
:1026B00020178FE193E00E94281181EB91E00E94A6
:1026C00028118FE092E00E942811F801828140E1F8
:1026D000BE016F5F7F4F90E00E942017CE010196F0
:1026E0000E94281181EB91E00E9428118FE192E075
:1026F0000E942811F801838140E1BE016F5F7F4F86
:1027000090E00E942017CE0101960E94281181EBD3
:1027100091E00E9428118FE292E00E942811F801B6
:10272000848140E16FE173E090E00E9420178FE127
:1027300093E00E94281181EB91E00E942811A89655
:102740000FB6F894DEBF0FBECDBFDF91CF911F91C2
:102750000F91FF90089580B7886080BF87B7816030
:1027600087BF83B7816083BF85B58C6785BD87B719
:10277000806487BF83B58F6783BD8EB589608EBD4A
:1027800087B7806187BF8FE39FE19BBD8ABD809142
:102790008B00816880938B0080918A008960809390
:1027A0008A0080917D00846080937D008FE790E0B7
:1027B0009093870080938600809161008F7780934B
:1027C0006100809162008F778093620087B1876497
:1027D00087B986B1876886B98091610088608093E7
:1027E000610080916200877F809362000E944E1199
:1027F00087B3806C87BB87B3876087BB80E58DB963
:1028000081E08EB90E94B30C0E9400110E94080C56
:1028100080E784BB8CE682B984E683B984E081BB1F
:102820008CEF8093BB028AB7806C8ABF89B78068BF
:1028300089BF0E94C7007894C0E011E00FEF80E4E8
:10284000F82E90E1C92E20E2D22E30E3E32E4EEF97
:10285000942E5CEFA52E68EFB62E8FE39FE10197D3
:10286000F1F700C000000E94BE02809141028FB9C2
:10287000779BFECF88B3812788BB88B3812788BB2D
:102880000ABBC53000F5EC2FF0E0E754FD4F808126
:102890008BBBCC23D9F0C130F1F1C230F9F1C33098
:1028A00009F43FC015BAC5E0D0914202D130A1F081
:1028B00080915D0285FF04C0809143028130A1F1C7
:1028C0000E94E709CACF8091B9028BBBF5BAC1E07B
:1028D000D0914202D13061F71092420280915D02A4
:1028E00085FF12C00E9468120E94A411D09340027A
:1028F0000E94D9118091A403893050F0813108F5EC
:1029000080E880934102D4CF0E94C9111092400206
:1029100010924102CDCFE5BAC2E0C6CFD5BAC3E02E
:10292000C3CFC5BAC4E0C0CF109243020E94A41125
:102930000E94D9118091A403893048F41092410279
:10294000BFCF893150F480EC80934102B1CF813107
:1029500050F480E880934102B3CF813250F480EE8E
:1029600080934102A5CF893150F480EC80934102DD
:10297000A7CF893250F480EF8093410299CF813202
:1029800048F480EE809341029BCF813348F4B092AB
:1029900041028ECF893248F480EF8093410290CF7C
:1029A000893340F4A092410283CF813340F4B09246
:1029B000410286CF813440F49092410279CF89332D
:1029C00030F4A09241027CCF0093410271CF813458
:1029D00018F49092410274CF0093410271CF97FB9B
:1029E000072E16F4009407D077FD09D00E943A15FF
:1029F00007FC05D03EF4909581959F4F0895709502
:102A000061957F4F0895052E97FB1EF400940E9458
:102A10001A1557FD07D00E944E1507FC03D04EF43F
:102A20000C941A1550954095309521953F4F4F4F76
:102A30005F4F089590958095709561957F4F8F4F6A
:102A40009F4F0895EE0FFF1F0024001C0BBE079040
:102A5000F691E02D0994A29FB001B39FC001A39FFE
:102A6000700D811D1124911DB29F700D811D1124C7
:102A7000911D0895AA1BBB1B51E107C0AA1FBB1FD4
:102A8000A617B70710F0A61BB70B881F991F5A95FA
:102A9000A9F780959095BC01CD010895A1E21A2E69
:102AA000AA1BBB1BFD010DC0AA1FBB1FEE1FFF1FF2
:102AB000A217B307E407F50720F0A21BB30BE40B42
:102AC000F50B661F771F881F991F1A9469F7609589
:102AD0007095809590959B01AC01BD01CF01089543
:102AE0005058BB27AA270E9488150C9467160E948D
:102AF000591638F00E94601620F039F49F3F19F4FF
:102B000026F40C9456160EF4E095E7FB0C94501640
:102B1000E92F0E94781658F3BA17620773078407E3
:102B2000950720F079F4A6F50C949A160EF4E0952A
:102B30000B2EBA2FA02D0B01B90190010C01CA0177
:102B4000A0011124FF27591B99F0593F50F4503E22
:102B500068F11A16F040A22F232F342F4427585F14
:102B6000F3CF469537952795A795F0405395C9F72C
:102B70007EF41F16BA0B620B730B840BBAF09150E4
:102B8000A1F0FF0FBB1F661F771F881FC2F70EC083
:102B9000BA0F621F731F841F48F487957795679556
:102BA000B795F7959E3F08F0B0CF9395880F08F042
:102BB0009927EE0F9795879508950E94E4156894DC
:102BC000B1110C949B1608950E94801688F09F57AF
:102BD00098F0B92F9927B751B0F0E1F0660F771F41
:102BE000881F991F1AF0BA95C9F714C0B13091F037
:102BF0000E949A16B1E008950C949A16672F782FC8
:102C00008827B85F39F0B93FCCF3869577956795FB
:102C1000B395D9F73EF490958095709561957F4F67
:102C20008F4F9F4F0895E89409C097FB3EF490950D
:102C30008095709561957F4F8F4F9F4F9923A9F095
:102C4000F92F96E9BB279395F69587957795679524
:102C5000B795F111F8CFFAF4BB0F11F460FF1BC068
:102C60006F5F7F4F8F4F9F4F16C0882311F096E9FB
:102C700011C0772321F09EE8872F762F05C06623A9
:102C800071F096E8862F70E060E02AF09A95660F62
:102C9000771F881FDAF7880F9695879597F908951B
:102CA00097F99F6780E870E060E008959FEF80ECFF
:102CB000089500240A9416161706180609060895A2
:102CC00000240A9412161306140605060895092E08
:102CD0000394000C11F4882352F0BB0F40F4BF2B77
:102CE00011F460FF04C06F5F7F4F8F4F9F4F0895B7
:102CF00057FD9058440F551F59F05F3F71F04795AD
:102D0000880F97FB991F61F09F3F79F08795089591
:102D1000121613061406551FF2CF4695F1DF08C0B0
:102D2000161617061806991FF1CF869571056105CD
:102D300008940895E894BB2766277727CB0197F975
:102D400008950E94B4160C9467160E94591638F024
:102D50000E94601620F0952311F00C9450160C94EC
:102D6000561611240C949B160E94781670F3959FAA
:102D7000C1F3950F50E0551F629FF001729FBB2772
:102D8000F00DB11D639FAA27F00DB11DAA1F649F0E
:102D90006627B00DA11D661F829F2227B00DA11DC1
:102DA000621F739FB00DA11D621F839FA00D611D47
:102DB000221F749F3327A00D611D231F849F600D68
:102DC000211D822F762F6A2F11249F5750409AF091
:102DD000F1F088234AF0EE0FFF1FBB1F661F771F1D
:102DE000881F91505040A9F79E3F510580F00C94E8
:102DF00050160C949B165F3FE4F3983ED4F38695EF
:102E000077956795B795F795E7959F5FC1F7FE2B87
:102E1000880F911D9695879597F90895FB01DC0120
:102E20000D900020E9F7119701900D920020E1F735
:102E30000895FB01DC0101900D920020E1F7089557
:102E4000BB274A3031F4992322F4BDE29095819555
:102E50009F4F0C942C17BB27FB015527AA27880FDF
:102E6000991FAA1FA41710F0A41B83955051B9F7FE
:102E7000A05DAA3308F0A95DA193009779F7B1117D
:102E8000B1931192CB010C944517DC01FC01672F23
:102E900071917723E1F7329704C07C916D93708331
:0E2EA0006291AE17BF07C8F30895F894FFCFF4
:102EAE00016A22262A0627262A06272020202020ED
:102EBE002020202020202020202020202020202004
:102ECE0020202020202020202020200A00414C41BC
:102EDE00524D000000000000000000000001010142
:102EEE00010C536934373334205265763A20206C06
:102EFE00617374203220646967697473206F662071
:102F0E0070617274206E6F2E2020206368697020AD
:102F1E0072657620202020200A0D002020202020FF
:102F2E0020202020202020202D2D2D2D2D2D2D2D2B
:102F3E002D2D2D2D2D2D2D2D2D2D2D2D2D2D2D2DB3
:102F4E002D2020202D2D2D2D2D2D2D2D20202020FE
:102F5E00200A0D00202020202020202020202020AC
:102F6E00202020202020202020202020202000464D
:102F7E004D5F5253515F5354415455533A20007391
:102F8E00746174757320627974652020203A007222
:102F9E00657370312020202020202020203A0066EA
:102FAE00726571202020202020202020203A0066EB
:102FBE00726571206869676820202020203A0066BB
:102FCE00726571206C6F772020202020203A0072CD
:102FDE00737369202020202020202020203A00001A
:00000001FF
